:020000040800F2
:1000000080220024ED030008F9900008E178000840
:10001000F1900008211A0008F1A900080000000072
:10002000000000000000000000000000B195000882
:10003000291A0008000000007191000811960008BC
:100040000704000807040008070400080704000864
:10005000070400080704000807040008311A000814
:100060000704000807040008070400080704000844
:100070000704000807040008070400080704000834
:100080000704000807040008070400080704000824
:100090000704000807040008070400080704000814
:1000A0000704000807040008070400080704000804
:1000B00007040008D1980008070400080704000896
:1000C000E978000807040008F97800080704000828
:1000D00007040008E1A90008070400080704000855
:1000E00007040008070400080000000007040008D7
:1000F00007040008070400080704000807040008B4
:1001000007040008070400080704000807040008A3
:100110000704000807040008070400080704000893
:100120000704000807040008070400080704000883
:100130000704000807040008070400080704000873
:1001400000000000000000000000000000000000AF
:100150000704000807040008070400080704000853
:100160000704000807040008070400080704000843
:100170000704000807040008070400080704000833
:100180000704000807040008070400080704000823
:100190000704000807040008070400080704000813
:1001A0000704000807040008070400080704000803
:1001B00007040008070400080704000807040008F3
:1001C00007040008070400080704000807040008E3
:1001D00007040008070400080704000807040008D3
:1001E00007040008070400080704000807040008C3
:1001F00007040008070400080704000807040008B3
:1002000007040008070400080704000807040008A2
:100210000704000807040008070400080704000892
:100220000704000807040008070400080000000095
:100230000704000807040008000000000704000885
:100240000704000807040008070400080704000862
:100250000704000807040008070400080704000852
:100260000704000807040008070400080704000842
:100270000704000807040008070400080000000045
:100280000704000807040008070400080000000035
:10029000000000000704000800F002F800F096F8E3
:1002A0000AA090E8000C82448344AAF10107DA45D1
:1002B00001D100F08BF8AFF2090EBAE80F0013F08D
:1002C000010F18BFFB1A43F00103184734C50000A3
:1002D00054C50000103A24BF78C878C1FAD8520734
:1002E00024BF30C830C144BF04680C6070470000B0
:1002F0000023002400250026103A28BF78C1FBD82F
:10030000520728BF30C148BF0B6070476E2900F00C
:100310001983702900F05B8466290CF04C816529F3
:100320000CF0498167290CF0468161290CF0458168
:1003300003681B0A28BF41F08001692900F0C682CA
:10034000642900F0C382752900F0C0826F2900F093
:10035000E983782900F02784E92900F08383E429E0
:1003600000F08083F52900F07D83EF2900F0E6831B
:10037000F82900F026840368DB0928BF41F08001DA
:10038000632901F07B81732901F08081E32901F069
:100390008B81F32901F09081002070471FB50CF08C
:1003A000FDF89DE8030000F0EDF901F0E3F9040029
:1003B000002000210CF0DCF8401C606000200021CF
:1003C0000CF0C0F8E0601FBD10B510BD01F0A4F93D
:1003D0001146FFF7E3FF0AF073FB01F081FA03B463
:1003E000FFF7F2FF03BC01F0B1FA000009488047B3
:1003F00009480047FEE7FEE7FEE7FEE7FEE7FEE707
:10040000FEE7FEE7FEE7FEE704480549054A064B1E
:10041000704700007197000899020008800A0024C4
:1004200080220024801200248012002470B5064629
:1004300000F08CF9056806F10B0020F00704B442C7
:100440009CBF002070BD2B466A68BAB11068A042FC
:1004500010D304F1080188423CBF5068586007D3AC
:100460005168101941601168091B016058601460DF
:10047000101D70BD13465268002AE7D12146284658
:1004800000F06CF90028DED170BD70B50446051F80
:1004900000F05CF90068002C14BF446870BD002CAB
:1004A00018BFAC423CBF20466468F8D301680A1804
:1004B000AA4218BF456003D12A680546114401606D
:1004C00028684119A1421CBF6C6070BD61686960F9
:1004D00021680844286070BD53EA020C00F069806E
:1004E0002DE9F04B4FF00006002B1FBFB3FA83F548
:1004F00003FA05F424FA05F65E4012BF1643B2FA79
:1005000082F502FA05F4C5F120051EBF22FA05FCAA
:1005100044EA0C04203556EA044C4FEA144418BF50
:10052000641C4FF000084FF00009904271EB030C7F
:1005300039D3002919BFB1FA81F701FA07F6B0FAE9
:1005400080F700FA07F6C7F120071EBF20FA07FC64
:1005500046EA0C062037B6FBF4FCA7EB0507103F74
:1005600007F01F0BCBF120062CFA06F60CFA0BFB5A
:1005700044BFB3460026202FA4BF5E464FF0000BB9
:100580005BEA060C08BF4FF0010B19EB0B0948EBB7
:100590000608ABFB027C06FB02CC0BFB03CCC01BAA
:1005A00071EB0C01C1E70B46024641464846BDE8E7
:1005B000F08B13B5084318BF4FF0FF300146AFF37F
:1005C0000080BDE81C4070471CB50C46064B7B44C0
:1005D00069460090204600F0CEF9044600206946A6
:1005E00000F0DCF920461CBDCB03000010B5431C15
:1005F00002E010F8011B71B18107FAD14FF001320E
:1006000002C88C1A8C4314EAC211F9D0C01A0A0627
:1006100003D0C01E10BDC01A10BD0A0401D0801E38
:1006200010BD0902FCD0401E10BD032A40F23080EC
:1006300010F0030C00F0158011F8013BBCF1020F23
:10064000624498BF11F801CB00F8013B38BF11F8A4
:10065000013BA2F1040298BF00F801CB38BF00F8BB
:10066000013B11F0030300F08183083AC0F00880D9
:1006700051F8043B083A51F804CBA0E80810F5E71C
:10068000121D5CBF51F8043B40F8043BAFF30080FF
:10069000D20724BF11F8013B11F801CB48BF11F874
:1006A000012B24BF00F8013B00F801CB48BF00F844
:1006B000012B70474FF000020429C0F0128010F0A7
:1006C000030C00F01B80CCF1040CBCF1020F18BF2E
:1006D00000F8012BA8BF20F8022BA1EB0C0100F0C1
:1006E0000DB85FEAC17C24BF00F8012B00F8012B94
:1006F00048BF00F8012B70474FF0000200B51346C9
:1007000094469646203922BFA0E80C50A0E80C5031
:10071000B1F12001BFF4F7AF090728BFA0E80C50E2
:1007200048BF0CC05DF804EB890028BF40F8042BDB
:1007300008BF704748BF20F8022B11F0804F18BF48
:1007400000F8012B704770477047704700487047AA
:1007500020000024704770477047704738B5044642
:100760000A4600206946AFF30080002808BF38BD64
:1007700002460099204600F033FB012038BD0120DD
:1007800000F0C2BFF8B5AFF30080054600200C466C
:10079000102000BF0646A819A0420DD9324669466E
:1007A0000020AFF30080070008BF00F0ADFF009805
:1007B000A04218BF0546C419FFF7C8FF05600746E9
:1007C000F01D20F007004619284600F00AF8B44250
:1007D00008BFF8BDA21B31463868BDE8F84000F0FC
:1007E000FFBA00210160C0E9011070471020704776
:1007F00010B500F0F1FA006810BD10B5044600F025
:10080000EBFA046010BD70B5044685690068C10646
:1008100001D5302600E02026C00707D070BDD4E9FE
:10082000012130469047206A401C20626D1EF6D59B
:1008300070BD70B5044685690078C00707D170BDEA
:10084000D4E9012120209047206A401C20626D1EBF
:10085000F6D570BD09684A0501D540B27047C90593
:10086000FCD500B2704709684A0501D5C0B270478F
:10087000C905FCD580B2704770B50C460546012A03
:1008800005D02878800600D5EA69002302E001231C
:1008900005E05B1C934202D2E05C0028F9D1A86914
:1008A000E618C01AA861286A184428622846FFF78B
:1008B000AAFF04E0D5E9012114F8010B9047B442E6
:1008C000F8D32846FFF7B5FF70BD00002DE9F041D1
:1008D0000646002410687529314616A510D0FFF78A
:1008E000B9FF002802DA404213A507E031688A0701
:1008F00001D512A502E0490704D511A5012401E0A4
:10090000FFF7B1FF00210A2206F1240709E0B0FB3E
:10091000F2FCB0FBF2F302FB1C00303078541846B6
:10092000491C0028F3D123462A463046BDE8F04151
:1009300000F0B5BA000000002D0000002B00000000
:100940002000000011680268006A530501D5087094
:100950000AE0D30501D5088006E0130603D5C217C7
:10096000C1E9000200E008600120704701694A1CEB
:1009700002610878704700B58FB0CDE901310021E0
:10098000059105497944CDE903101146684600F008
:1009900029F90FB000BD0000E5FFFFFF0A6802F86B
:1009A000010B0A60704700002DE9FF5F15468A467B
:1009B0000446DFF8AC80F8440027D8E900103E4632
:1009C000CDE9001010E03AF816106A4602A800F0CF
:1009D00077FE411C07D02178890603D5E2693918D2
:1009E00091420DD80744761C2078800602D5E06934
:1009F000B84205DDAE42E6DB3AF816000028E2D147
:100A0000A069C01BA0612046FFF7FDFED8E90010D9
:100A1000CDE90010002017E03AF818106A4602A845
:100A200000F04EFEB0F1FF3F81460BD000250DF1E6
:100A3000080B05E0D4E901211BF8050090476D1C67
:100A40004D45F7D308F10100B0428046E4DB206A4F
:100A5000384420622046FFF7ECFEBDE8FF9F00000F
:100A600006BC00002DE9F0418046D21D22F00702AD
:100A70000025D2E90002F52915A614D0011E72F155
:100A8000000106DA0023D0EB030063EB020211A69B
:100A900008E0D8F800108B0701D50FA602E049073F
:100AA00001D50EA601251146002408F1240704E013
:100AB00000F0B0F930323A55641C50EA0102F7D127
:100AC0002B46324621464046BDE8F04100F0E7B9EA
:100AD000000000002D0000002B000000200000009E
:100AE00030B4002100F1240408E002F00705D20828
:100AF000303542EA4372DB086554491C52EA03056B
:100B0000F3D10468002310A2250708D504F02004BF
:100B10000C4304D0C46901230CA2641EC46130BC20
:100B200000F0BDB910B5044621461068FFF79BFEE2
:100B300002462046BDE810400023D1E7D21D22F036
:100B40000701D1E90023CBE70000000030000000DE
:100B5000F0B40D460188090502D5214C7C4402E021
:100B60001F4C7C440E34002100F1240608E002F002
:100B70000F071209E75D42EA03721B097754491C0B
:100B800052EA0307F3D102780023120704D5702D2F
:100B900006D009B1022311342246F0BC00F07FB91F
:100BA00001231034F8E770B504460D46214610685D
:100BB000FFF759FE024629462046BDE87040002353
:100BC000C6E7D21D22F00703D3E90023C0E703687C
:100BD000126843F0200303600823C3610023B7E7D2
:100BE00068BA00002DE9F05F894604464FF0000A1C
:100BF000DFF874B1FB44C0F820A02046E1688847C4
:100C0000002874D0252806D0D4E901219047206A15
:100C1000401C2062F1E700265F462046E1688847D5
:100C20002028054607DB312D05D2781910F8200C55
:100C300008B10643F1E7B00701D526F00406C4F871
:100C40001CA00027C4F818A02A2D09D028460BF0B4
:100C500072FC38B304EB8708303DC8F8185019E02F
:100C600059F8041B204604EB87029161E16888472C
:100C7000012F054618D1E069002820DA26F0200669
:100C80001DE0D8F8180000EB800005EB400030387C
:100C9000C8F818002046E168884705460BF04BFC71
:100CA0000028EED1012F0AD02E2D08D12046E16870
:100CB00088477F1C0546022F46F02006C4DBA0694A
:100CC000002803DA404246F00106A061F00701D097
:100CD00026F010066C2D0BD0682D09D04C2D39D084
:100CE0006A2D35D0742D35D07A2D33D016E038E00A
:100CF000E1682F4620468847B842054609D16C2F47
:100D000026D04FF48060E1680643204688470546B8
:100D100004E06C2F1AD04FF4807006430DB3A5F198
:100D20004100192802D8203546F400664A46294673
:100D3000204626604E46FFF7E9FA80B101280BD025
:100D4000F61D26F0070000F1080956E74020E4E709
:100D50008020D8E70020D6E706F104094DE72846B1
:100D600052E7206ABDE8F09FF8B9000010B5203ABC
:100D7000C0F00B80B1E81850A0E81850B1E8185046
:100D8000A0E81850203ABFF4F5AF5FEA027C24BF18
:100D9000B1E81850A0E8185044BF18C918C0BDE801
:100DA00010405FEA827C24BF51F8043B40F8043BCA
:100DB00008BF7047D20728BF31F8023B48BF11F87F
:100DC000012B28BF20F8023B48BF00F8012B7047D9
:100DD000004870471800002400487047180000249D
:100DE000034640688C46002818BF88423CBF034633
:100DF0004068F8D318681844884207D00CF1030003
:100E000020F00700001D411A521A0146081D0A6011
:100E1000FFF73BBB30B5B0F10A0271F100034FEAB6
:100E2000900E4EEA817EB0EB0E0061EB91014FEA2D
:100E3000101E4EEA017E10EB0E0041EB11114FEA3D
:100E4000102E4EEA016E10EB0E0041EB11214FEA1D
:100E5000104E4EEA014E10EB0E0041EB11414018CE
:100E600041F100014FEAD00040EA41704FEAD10160
:100E70004FEA810444EA907410EB800544EB0104CE
:100E80006D1944EB0404521BA3414FF0000348BF0B
:100E90000A3200D530BD401C41F1000130BD2DE9C2
:100EA000F0470D4699469246044600F12408016831
:100EB000880604D5E06921F01001216000E00120DE
:100EC000A84201DD471B00E00027A1697A1902EB67
:100ED0000900081AA0612078C00602D42046FFF756
:100EE00092FC002608E0D4E901211AF80600904798
:100EF000206A401C761C20624E45F4DB2078C00638
:100F00000AD52046FFF77FFC06E0D4E90121302016
:100F10009047206A401C2062381EA7F10107F4DCCC
:100F200007E0D4E9012118F805009047206A401C29
:100F30002062281EA5F10105F3DC2046FFF779FCAD
:100F40002078000602D50220BDE8F0870120FBE7EB
:100F50002DE9FF4F0C461E464FF0FF378BB0D2E90C
:100F60000001DDF860800A908A46C1F30A5505B990
:100F70003D46002108464FF00000BAF1000F00F492
:100F8000400005DA00EB80004FF4400101EA500018
:100F90004FEA9059B9F1010F00DDB9460A9850EABD
:100FA0004A000ED044F61050A5F2FF3545432F14E9
:100FB000B8F1000F1ED07542291E1EDDC9F10002D6
:100FC0001CE0B8F1010F4FF0000001D0302103E028
:100FD000F24305E02154401CB042FBDB30460022C6
:100FE000002121540B99C1F80880C1E900200FB0FD
:100FF000BDE8F08FBD1B6D1CDEE74A4600DA694292
:1010000006A800F0FBFB06AB93E8070003AB83E800
:10101000070050460A990AF07BFE8DE80700A0F50C
:1010200000501F3800900398002D0ADD42F21F0186
:101030004A460844002303A9039068460BF0E4F8ED
:1010400009E0A0F500504A461F38002303A9039089
:1010500068460BF0EEF88DE807000004000C03D0A2
:101060004FF0FF30410800E01046B8F1000F03D008
:101070000022009215461EE0751E05D4FFF7CAFE39
:10108000303262556D1EF9D5B3460122084302D0B5
:1010900000227F1C04E02078302801D100227F1E2E
:1010A000002A099784D01DE0112D07DAFFF7B2FE60
:1010B000303262556D1C50EA0102F5D1084302D06E
:1010C0000098C8B10EE00021681E05E0235C625C58
:1010D00063542254401E491C8142F7DBAB46A81BD7
:1010E000401E0990002004F80B000B98099AC0F8E4
:1010F0000880C0E9002B7AE711264FF0000857E777
:101100002DE9F04F88460446D21D22F0070191B028
:10111000D1E90001CDE90A010BF0C2F902460B98B2
:10112000C00F01D02D2007E02068810701D52B20BA
:1011300002E0202101EAC000032A099001D0072A19
:1011400005DB03464146204600F018FB0BE1207802
:10115000800601D5E06900E00620B8F1650F814600
:1011600006D0B8F1660F18D0B8F1670F70D131E032
:101170000020B9F1110F009001DB112301E009F10A
:1011800001030AAA01A90CA8FFF7E2FEDDE90C7031
:10119000002609F10105834647E001204B460090F7
:1011A0004FF000470AAA01A90CA8FFF7D1FEDDE91C
:1011B0000DB00C995D46002610B909F101000D181B
:1011C000B9EB050003D4C0F1FF3609F10105A5EB29
:1011D00009002BE0B9F1010F01DA4FF001090020FD
:1011E000B9F1110F0090484601DD112300E00346DC
:1011F0000AAA01A90CA8FFF7ABFEDDE90C704D4669
:1012000000268346207800070AD4AB4500DA5D4605
:1012100001A8012D04DD411911F8011C302907D066
:101220004F4502DA17F1040F04DA012082460FE07D
:101230006D1EEEE7002F02DCED1B3E4403E0781C40
:10124000A84200DD7D1CB81B00F1010A4FF00047E9
:101250002078000703D4AA4501DB4FF0FF3A0021B4
:10126000B7F1004F0DF143088DF8431024D0022050
:101270002B23002F01DA7F422D230A21021EA0F129
:10128000010000DC5FB197FBF1FC97FBF1F201FB81
:101290001C7C17460CF1300C08F801CDEEE7A8F1E4
:1012A000010003702188090501D5452100E0652171
:1012B000A0F1010800F8011C09980FA9A1EB08078B
:1012C000FF1D00B10120411901EBEA70A16938440A
:1012D000081A401EA0612078C00602D42046FFF7FD
:1012E00092FA099828B1D4E901219047206A401C5C
:1012F00020622078C00622D52046FFF784FA1EE03F
:10130000002E04DBB34502DD01A8805D00E0302043
:10131000D4E901219047206A401C2062761CAAF182
:1013200001005FEA000A0AD100F024FAC0680168EF
:10133000405CD4E901219047206A401C2062281EAD
:10134000A5F10105DCDC07E0D4E9012118F8010B67
:101350009047206A401C2062381EA7F10107F3DC89
:101360002046FFF766FA032011B041E62DE9F04F61
:1013700004460D46D21D22F0070089B0D0E900973F
:10138000484639460BF08CF80246F80F01D02D2361
:1013900007E02068810701D52B2302E0202101EA24
:1013A000C0038DF820300BB1012000E00020032A9B
:1013B000824601D0072A04DB2946204600F0DEF9E8
:1013C0003FE12078800601D40D2500E0E569C7F3F0
:1013D0000A560D2D49DA00214FEA175B08464FF0F7
:1013E0000000002F00F4400007DA00EB80004FF40B
:1013F000400100EBD07001EA60008115012901DD98
:101400004FF0FF3100224FEA850CBCF1180F06D3D4
:101410001346ACF118004FF08052C24003E04FF485
:10142000801323FA0CF30CF10C0CBCF1200F04D345
:10143000ACF1200C09FA0CF001E007FA0CF00029DD
:101440004FF0004801DD18B90FE00ED140450CD334
:1014500019EB02095F4121B9404502D19F4329EAB6
:101460000209BBEB175F00D0761C2088000502D56F
:101470007B48784402E07A487844193808AA302337
:1014800002F80A30037C0AF10101002E0AF1020A77
:1014900053546A4602DC4FF0300101E04FF0310155
:1014A0004FF001088DF8001002D0A6F2FF3603E0DD
:1014B00059EA470100D06B4E002D02DC2178090764
:1014C00004D54FF002082E218DF80110C4460021EA
:1014D0000BE0C7F303433F01C35C491C6D1E02F8D8
:1014E0000830052908F1010801DA002DF1DC00219E
:1014F0000CE000EB1973491C1B786D1E082902F8DB
:1015000008304FEA091908F1010801DA002DF0DC72
:1015100021688B0602D516E0A8F10108E04505DD3B
:1015200002EB080313F8013C302BF5D0B8F1000FA3
:1015300009DD02EB080313F8013C2E2B03D1090748
:1015400001D4A8F10108002D05DD3E2102F80810A4
:101550006D1E08F10108407C002E02F8080008F119
:10156000010804DA2D20764202F8080002E02B2060
:1015700002F808000A214FF47A70864208F1010847
:101580000BDB96FBF0F3303302F8083096FBF0F3F8
:1015900008F1010800FB136601E0642E0CDB6420F7
:1015A00096FBF0F3303302F8083096FBF0F308F1C5
:1015B000010800FB136601E00A2E06DB96FBF1F042
:1015C000303002F8080008F1010896FBF1F001FB49
:1015D0001060303002F80800A16908F1010808EB3A
:1015E000050202EB0A00081AA0612078C00602D4A6
:1015F0002046FFF708F9216A08AE01EB0A002062D5
:1016000004E0D4E9012116F8010B9047BAF1010A70
:10161000F7D22078C00602D52046FFF7F4F86E46D0
:1016200009E016F8010B3E280FD0D4E901219047BC
:10163000206A401C2062B8F10108F2D22046FFF770
:10164000F8F809B00320BDE8F08F206A2844206232
:1016500003E0D4E90121302090476D1EEBD3F8E779
:101660009EB1000002FCFFFF10B5436913B1AFF358
:10167000008001E0FFF700F9012010BD127800F1B1
:1016800024010A7000224A700122EDE711684FF030
:10169000FF32E9E710B5436913B1AFF3008001E011
:1016A000FFF782F9012010BD128800F12401828425
:1016B0000022C2840122EDE711684FF0FF32E9E712
:1016C0002DE9F04116460C46054600F04BF803683C
:1016D00093F80101012807D0FF2C12D8185D80B1C2
:1016E00001202C70BDE8F081D3F807013246214675
:1016F00003F20713C7182846BC46BDE8F041002393
:1017000060474FF0FF30EDE710B500F0F7F8BDE8A7
:10171000104000F0EEB870477546FFF759FBAE4633
:1017200005006946534620F00700854618B020B5ED
:10173000FEF76AFEBDE820404FF000064FF00007BC
:101740004FF000084FF0000BAC46ACE8C009ACE825
:10175000C009ACE8C009ACE8C00921F007018D461A
:101760007047000010B500F005F8001D10BD00BF67
:1017700001AE000000487047380000242DE9F04118
:101780001F46044603260168072A01F4006004DBB3
:1017900008B116A505E016A503E008B115A500E0FF
:1017A00015A521F010002060A069C01EA0610FB136
:1017B000401EA0612046FFF726F84FB1D4E9012171
:1017C00038469047206A401C2062C01C206206E018
:1017D000206AFAE7D4E9012115F8010B9047761E3B
:1017E000F8D22046FFF725F8BDE8F0814E414E00C3
:1017F0006E616E00494E4600696E66002DE9F04745
:10180000814616468AB0354878440DC88DE80D00EB
:1018100032487844801C03AC0DC884E80D0041F6C2
:101820009B300844372190FBF1F290FBF1F5A5F1D4
:10183000800501FB12041B3C02D56442012000E03C
:101840000020DFF898A080460027FA44AAF1BE0ADB
:101850000EE0E0070AD03246684607EB4701012355
:101860000AEB81010AF0E5FC8DE8070064107F1C9B
:10187000002CEED1194F7F44AE3F19E0E80715D098
:1018800007EB04100DF1180A90E80E008AE80E002C
:10189000C068F04201D1981908903246012306A988
:1018A00003A80AF0C6FC03AB83E807006D10641CB4
:1018B000002DE3D14FF0010332466946B8F1000F25
:1018C00003A802D00AF0A0FC01E00AF0B2FCC9E9CA
:1018D0000001C9F808200AB0BDE8F08798AE000002
:1018E00010B50446AFF300802046BDE81040FEF777
:1018F00076BD002801D000F029B8704710B5012846
:1019000005D0002103A000F027F8012010BD09A197
:10191000F8E7000053494752544D454D3A204F7562
:1019200074206F662068656170206D656D6F7279D7
:10193000000000003A2048656170206D656D6F728F
:101940007920636F727275707465640001491820A4
:10195000ABBEFEE72600020070B505460C460A2025
:1019600000E06D1C00F052F835B128780028F8D15D
:1019700002E0641C00F04AF814B120780028F8D185
:10198000BDE870400A2000F041B8000000000000EF
:1019900030B44FF0013C50F8042BCCFA52F451F81B
:1019A000043BD51A20D1FCB950F8042BCCFA52F4E0
:1019B00051F8043BD51A17D1B4B950F8042BCCFA1E
:1019C00052F451F8043BD51A0ED16CB950F8042BDF
:1019D000CCFA52F451F8043BD51A05D1002CDAD0D8
:1019E00030BC4FF00000704729BAB1FA81F111F014
:1019F0001801D1F120008440F2D1CA40CB4012F04E
:101A0000FF0213F0FF0330BCD01A704708B56946D7
:101A10008DF800000320ABBE08BD000000000000F0
:101A2000FFE7FEE700000000704700000000000034
:101A300080B540F21C30C2F2004009F071F902207A
:101A400001F032F880BD000081B0EFF3108072B673
:101A50000090FFE7FEE7000080B58AB0089001F033
:101A60005BFA0490089828B9FFE701208DF8270059
:101A700000F0AABC089890F8350002280ED0FFE7C5
:101A8000089980204865FFE70899002081F8340014
:101A9000FFE701208DF8270000F096BC0898016848
:101AA00001201022C4F202029142039000F0A380B0
:101AB000FFE70898016801202822C4F2020291423F
:101AC000039000F09880FFE7089801680120402209
:101AD000C4F202029142039000F08D80FFE7089863
:101AE000016801205822C4F202029142039000F0E2
:101AF0008280FFE70898016801207022C4F2020288
:101B00009142039077D0FFE708980168012088226E
:101B1000C4F20202914203906DD0FFE70898016879
:101B20000120A022C4F202029142039063D0FFE799
:101B3000089801680120B822C4F202029142039081
:101B400059D0FFE708980168012040F21042C4F222
:101B50000202914203904ED0FFE7089801680120ED
:101B600040F22842C4F202029142039043D0FFE7C0
:101B700008980168012040F24042C4F202029142FA
:101B8000039038D0FFE708980168012040F25842DE
:101B9000C4F20202914203902DD0FFE70898016839
:101BA000012040F27042C4F202029142039022D01E
:101BB000FFE708980168012040F28842C4F202025F
:101BC0009142039017D0FFE708980168012040F286
:101BD000A042C4F20202914203900CD0FFE70898A1
:101BE00000684FF64831CBF6FD710844B0FA80F03A
:101BF00040090390FFE70398C00780B1FFE708980A
:101C00000168086820F01E000860089801684869AB
:101C100020F08000486108980068059009E0089865
:101C20000168086820F00E000860089800680590B8
:101C3000FFE70898016801201022C4F202029142D5
:101C4000029000F00381FFE7089801680120282234
:101C5000C4F202029142029000F0F880FFE7089877
:101C6000016801204022C4F202029142029000F079
:101C7000ED80FFE70898016801205822C4F20202B3
:101C80009142029000F0E280FFE70898016801208D
:101C90007022C4F202029142029000F0D780FFE766
:101CA0000898016801208822C4F202029142029041
:101CB00000F0CC80FFE7089801680120A022C4F260
:101CC00002029142029000F0C180FFE7089801688B
:101CD0000120B822C4F202029142029000F0B680C4
:101CE000FFE708980168012040F21042C4F20202A6
:101CF0009142029000F0AA80FFE708980168012055
:101D000040F22842C4F202029142029000F09E800A
:101D1000FFE708980168012040F24042C4F2020245
:101D20009142029000F09280FFE70898016801203C
:101D300040F25842C4F202029142029000F08680C2
:101D4000FFE708980168012040F27042C4F20202E5
:101D5000914202907AD0FFE708980168012040F292
:101D60008842C4F20202914202906FD0FFE70898C5
:101D70000168012040F2A042C4F2020291420290A6
:101D800064D0FFE708980168012040F2B842C4F22D
:101D900002029142029059D0FFE7089801680120A1
:101DA00045F20842C5F60202914202904ED0FFE78A
:101DB00008980168012045F21C42C5F602029142D2
:101DC000029043D0FFE708980168012045F23042B5
:101DD000C5F602029142029038D0FFE708980168E8
:101DE000012045F24442C5F60202914202902DD0F4
:101DF000FFE708980168012045F25842C5F6020243
:101E00009142029022D0FFE708980168012045F234
:101E10006C42C5F602029142029017D0FFE7089883
:101E20000168012045F28042C5F60202914202900B
:101E30000CD0FFE7089800684AF66C31CAF2FD71D1
:101E40000844B0FA80F040090290FFE70298C0070A
:101E500038B1FFE70898016E086820F480700860C8
:101E6000FFE7089800681021C4F20201884200F0E0
:101E70008180FFE7089800682821C4F202018842A7
:101E800078D0FFE7089800684021C4F20201884238
:101E900070D0FFE7089800685821C4F20201884218
:101EA00068D0FFE7089800687021C4F202018842F8
:101EB00060D0FFE7089800688821C4F202018842D8
:101EC00058D0FFE708980068A021C4F202018842B8
:101ED00050D0FFE708980068B821C4F20201884298
:101EE00048D0FFE70898006840F21041C4F20201B0
:101EF00088423FD0FFE70898006840F22841C4F2CA
:101F00000201884236D0FFE70898006840F240415D
:101F1000C4F2020188422DD0FFE70898006840F221
:101F20005841C4F20201884224D0FFE708980068B3
:101F300040F27041C4F2020188421BD0FFE70898CA
:101F4000006840F28841C4F20201884212D0FFE7E3
:101F50000898006840F2A041C4F20201884209D00A
:101F6000FFE70898006840F2B841C4F202018842D5
:101F700007D1FFE708980168086820F001000860B1
:101F800006E008980168086820F001000860FFE793
:101F9000FFE705980068C007C8B1FFE700F0BCFF85
:101FA0000499401A062811D3FFE7089920204865B4
:101FB0000899032081F83500FFE70899002081F88F
:101FC0003400FFE701208DF82700FDE1E1E70898E4
:101FD000016801201022C4F202029142019000F037
:101FE000A380FFE70898016801202822C4F20202BA
:101FF0009142019000F09880FFE708980168012065
:102000004022C4F202029142019000F08D80FFE76D
:102010000898016801205822C4F2020291420190FE
:1020200000F08280FFE70898016801207022C4F266
:1020300002029142019077D0FFE7089801680120E1
:102040008822C4F20202914201906DD0FFE7089805
:1020500001680120A022C4F202029142019063D0E3
:10206000FFE7089801680120B822C4F202029142F9
:10207000019059D0FFE708980168012040F2104212
:10208000C4F20202914201904ED0FFE70898016825
:10209000012040F22842C4F202029142019043D052
:1020A000FFE708980168012040F24042C4F20202B2
:1020B0009142019038D0FFE708980168012040F272
:1020C0005842C4F20202914201902DD0FFE70898D5
:1020D0000168012040F27042C4F202029142019074
:1020E00022D0FFE708980168012040F28842C4F23C
:1020F00002029142019017D0FFE708980168012081
:1021000040F2A042C4F20202914201900CD0FFE7DB
:10211000089800684FF64831CBF6FD710844B0FAD4
:1021200080F040090190FFE70198C00760B1FFE728
:102130000898806D07900898C06D00F01F013F203F
:102140008840079988600BE00898806D0690089891
:10215000C06D00F01F010120884006994860FFE72C
:102160000898016801201022C4F2020291420090F6
:1021700000F00381FFE70898016801202822C4F2DB
:1021800002029142009000F0F880FFE70898016891
:1021900001204022C4F202029142009000F0ED8042
:1021A000FFE70898016801205822C4F20202914218
:1021B000009000F0E280FFE708980168012070229B
:1021C000C4F202029142009000F0D780FFE7089825
:1021D000016801208822C4F202029142009000F0BE
:1021E000CC80FFE7089801680120A022C4F2020217
:1021F0009142009000F0C180FFE70898016801203B
:10220000B822C4F202029142009000F0B680FFE7CB
:1022100008980168012040F21042C4F20202914283
:10222000009000F0AA80FFE708980168012040F2C2
:102230002842C4F202029142009000F09E80FFE723
:1022400008980168012040F24042C4F20202914223
:10225000009000F09280FFE708980168012040F2AA
:102260005842C4F202029142009000F08680FFE7DB
:1022700008980168012040F27042C4F202029142C3
:1022800000907AD0FFE708980168012040F2884268
:10229000C4F20202914200906FD0FFE708980168F3
:1022A000012040F2A042C4F202029142009064D0A8
:1022B000FFE708980168012040F2B842C4F2020228
:1022C0009142009059D0FFE708980168012045F23B
:1022D0000842C5F60202914200904ED0FFE70898EE
:1022E0000168012045F21C42C5F6020291420090AD
:1022F00043D0FFE708980168012045F23042C5F657
:1023000002029142009038D0FFE70898016801204E
:1023100045F24442C5F60202914200902DD0FFE7FB
:1023200008980168012045F25842C5F60202914220
:10233000009022D0FFE708980168012045F26C4226
:10234000C5F602029142009017D0FFE70898016895
:10235000012045F28042C5F60202914200900CD065
:10236000FFE7089800684AF66C31CAF2FD7108442C
:10237000B0FA80F040090090FFE70098C007A0B1D4
:10238000FFE70898416E806E48600898C06E58B1AB
:10239000FFE70898C16E086820F48070086008980C
:1023A000016F406F4860FFE7FFE70899012081F85F
:1023B0003500FFE70899002081F83400FFE7FFE7C8
:1023C00000208DF82700FFE79DF827000AB080BDA8
:1023D00080B586B00490049820B9FFE701208DF8FD
:1023E000170046E3049890F83500022807D0FFE76D
:1023F00004998020486501208DF8170039E304987E
:10240000016801201022C4F202029142029000F001
:10241000A380FFE70498016801202822C4F2020289
:102420009142029000F09880FFE704980168012033
:102430004022C4F202029142029000F08D80FFE738
:102440000498016801205822C4F2020291420290CD
:1024500000F08280FFE70498016801207022C4F236
:1024600002029142029077D0FFE7049801680120B0
:102470008822C4F20202914202906DD0FFE70498D4
:1024800001680120A022C4F202029142029063D0AE
:10249000FFE7049801680120B822C4F202029142C9
:1024A000029059D0FFE704980168012040F21042E1
:1024B000C4F20202914202904ED0FFE704980168F4
:1024C000012040F22842C4F202029142029043D01D
:1024D000FFE704980168012040F24042C4F2020282
:1024E0009142029038D0FFE704980168012040F241
:1024F0005842C4F20202914202902DD0FFE70498A4
:102500000168012040F27042C4F20202914202903E
:1025100022D0FFE704980168012040F28842C4F20B
:1025200002029142029017D0FFE70498016801204F
:1025300040F2A042C4F20202914202900CD0FFE7A6
:10254000049800684FF64831CBF6FD710844B0FAA4
:1025500080F040090290FFE70298C007002800F0D1
:102560009D80FFE70499042081F8350004980068F5
:102570001021C4F20201884200F08180FFE7049834
:1025800000682821C4F20201884278D0FFE704984D
:1025900000684021C4F20201884270D0FFE704982D
:1025A00000685821C4F20201884268D0FFE704980D
:1025B00000687021C4F20201884260D0FFE70498ED
:1025C00000688821C4F20201884258D0FFE70498CD
:1025D0000068A021C4F20201884250D0FFE70498AD
:1025E0000068B821C4F20201884248D0FFE704988D
:1025F000006840F21041C4F2020188423FD0FFE778
:102600000498006840F22841C4F20201884236D0A2
:10261000FFE70498006840F24041C4F2020188429A
:102620002DD0FFE70498006840F25841C4F202013F
:10263000884224D0FFE70498006840F27041C4F259
:10264000020188421BD0FFE70498006840F28841ED
:10265000C4F20201884212D0FFE70498006840F2F9
:10266000A041C4F20201884209D0FFE70498006843
:1026700040F2B841C4F20201884207D1FFE7049852
:102680000168086820F00100086006E0049801680D
:10269000086820F001000860FFE7E5E104980168A0
:1026A000086820F00E000860049800681021C4F249
:1026B0000201884200F08180FFE704980068282129
:1026C000C4F20201884278D0FFE7049800684021F4
:1026D000C4F20201884270D0FFE7049800685821D4
:1026E000C4F20201884268D0FFE7049800687021B4
:1026F000C4F20201884260D0FFE704980068882194
:10270000C4F20201884258D0FFE704980068A02173
:10271000C4F20201884250D0FFE704980068B82153
:10272000C4F20201884248D0FFE70498006840F2F2
:102730001041C4F2020188423FD0FFE704980068CC
:1027400040F22841C4F20201884236D0FFE70498E3
:10275000006840F24041C4F2020188422DD0FFE7F8
:102760000498006840F25841C4F20201884224D023
:10277000FFE70498006840F27041C4F20201884209
:102780001BD0FFE70498006840F28841C4F20201C0
:10279000884212D0FFE70498006840F2A041C4F2DA
:1027A0000201884209D0FFE70498006840F2B8416E
:1027B000C4F20201884207D1FFE704980168086863
:1027C00020F00100086006E004980168086820F025
:1027D00001000860FFE70498016801201022C4F29C
:1027E00002029142019000F00381FFE70498016822
:1027F00001202822C4F202029142019000F0F880E8
:10280000FFE70498016801204022C4F202029142CD
:10281000019000F0ED80FFE7049801680120582244
:10282000C4F202029142019000F0E280FFE70498B6
:10283000016801207022C4F202029142019000F06E
:10284000D780FFE70498016801208822C4F20202C1
:102850009142019000F0CC80FFE7049801680120CC
:10286000A022C4F202029142019000F0C180FFE771
:10287000049801680120B822C4F20202914201903A
:1028800000F0B680FFE704980168012040F2104292
:10289000C4F202029142019000F0AA80FFE704987E
:1028A0000168012040F22842C4F2020291420190E4
:1028B00000F09E80FFE704980168012040F240424A
:1028C000C4F202029142019000F09280FFE7049866
:1028D0000168012040F25842C4F202029142019084
:1028E00000F08680FFE704980168012040F2704202
:1028F000C4F20202914201907AD0FFE70498016885
:10290000012040F28842C4F20202914201906FD04D
:10291000FFE704980168012040F2A042C4F20202DD
:102920009142019064D0FFE704980168012040F2D1
:10293000B842C4F202029142019059D0FFE70498D4
:102940000168012045F20842C5F602029142019059
:102950004ED0FFE704980168012045F21C42C5F6FD
:1029600002029142019043D0FFE7049801680120E0
:1029700045F23042C5F602029142019038D0FFE79D
:1029800004980168012045F24442C5F602029142D2
:1029900001902DD0FFE704980168012045F25842CC
:1029A000C5F602029142019022D0FFE70498016827
:1029B000012045F26C42C5F602029142019017D007
:1029C000FFE704980168012045F28042C5F6020243
:1029D000914201900CD0FFE7049800684AF66C31F0
:1029E000CAF2FD710844B0FA80F040090190FFE797
:1029F0000198C00728B3FFE70498016E086820F427
:102A0000807008600498806D03900498C06D00F099
:102A10001F0101208840039948600498416E806E30
:102A200048600498C06E58B1FFE70498C16E08680A
:102A300020F4807008600498016F406F4860FFE7E1
:102A4000FFE70499012081F83500FFE70499002091
:102A500081F83400FFE70498006D20B1FFE7049887
:102A6000016D8847FFE7FFE7FFE700208DF81700BB
:102A7000FFE79DF8170006B080BD000000000000D1
:102A800081B00090009890F8350001B070470000C8
:102A900081B0ADF80200BDF80200022801D1FFE7C5
:102AA000FFE701B07047000080B582B0ADF80600C6
:102AB0008820C5F600000068BDF8061008420BD05B
:102AC000FFE7BDF806008821C5F600010860BDF8E3
:102AD0000600FFF7DDFFFFE702B080BD0000000049
:102AE00090B00F900E9100200D908020C5F6000050
:102AF0000A90FFE70E9800680D99C840002800F082
:102B0000CF81FFE70E9800680D9A0121914008409F
:102B10000C900C98002800F0BF81FFE70E984068E9
:102B200000F00300012807D0FFE70E98406800F08E
:102B3000030002282FD1FFE70F9880680B900D98B3
:102B40004100032000FA01F10B9888430B900E9886
:102B5000C0680D99490000FA01F10B9808430B90E9
:102B60000B980F9988600F9840680B900D99012081
:102B700000FA01F10B9888430B900E984068C0F35F
:102B800000100D9900FA01F10B9808430B900B9877
:102B90000F994860FFE70E98406800F00300032893
:102BA00018D0FFE70F98C0680B900D9841000320E4
:102BB00000FA01F10B9888430B900E9880680D99EC
:102BC000490000FA01F10B9808430B900B980F99FC
:102BD000C860FFE70E98406800F00300022826D185
:102BE000FFE70F980D996FF0030202EA51010844C4
:102BF000006A0B900D9800F0070081000F2000FA8A
:102C000001F10B9888430B900E9800690D9901F023
:102C10000701890000FA01F10B9808430B900B980B
:102C20000F990D9B02EA530211440862FFE70F98C7
:102C300000680B900D984100032000FA01F10B98F9
:102C400088430B900E98406800F003000D994900EE
:102C500000FA01F10B9808430B900B980F9908604C
:102C60000E9880798007002800F01581FFE7FFE7C4
:102C700044F2F440C5F60200016841F0020101602F
:102C8000006800F0020009900998FFE70D9820F015
:102C9000030040F20841C5F6000140580B900D9822
:102CA00000F0030081000F2000FA01F10B98884327
:102CB0000B900F980021C5F60201884203D1FFE76F
:102CC000002008907AE00F9840F20041C5F602011A
:102CD000884203D1FFE7012007906CE00F9840F68F
:102CE0000001C5F60201884203D1FFE702200690E9
:102CF0005EE00F9840F60041C5F60201884203D11C
:102D0000FFE70320059050E00F9841F20001C5F65F
:102D10000201884203D1FFE70420049042E00F98AB
:102D200041F20041C5F60201884203D1FFE70520C8
:102D3000039034E00F9841F60001C5F60201884285
:102D400003D1FFE70620029026E00F9841F60041EC
:102D5000C5F60201884203D1FFE70720019018E081
:102D60000F9842F20001C5F60201884203D1FFE745
:102D7000082000900AE00F9942F20042C5F60202D4
:102D80000A20914208BF09200090FFE700980190B7
:102D9000FFE701980290FFE702980390FFE703988E
:102DA0000490FFE704980590FFE705980690FFE779
:102DB00006980790FFE707980890FFE708980D9995
:102DC00001F00301890000FA01F10B9808430B9010
:102DD0000B980D9921F0030140F20842C5F600025C
:102DE00088504FF0B04000680B900C990B988843C6
:102DF0000B900E988079C006002805D5FFE70C9946
:102E00000B9808430B90FFE70B984FF0B041086018
:102E10000420C5F6000000680B900C990B988843BD
:102E20000B900E9880798006002805D5FFE70C9955
:102E30000B9808430B90FFE70B980421C5F600019F
:102E400008600A9840680B900C990B9888430B9087
:102E50000E9880798007002805D5FFE70C990B981C
:102E600008430B90FFE70B980A9948600A9800689E
:102E70000B900C990B9888430B900E988079C007A3
:102E800028B1FFE70C990B9808430B90FFE70B98CC
:102E90000A990860FFE7FFE70D9801300D9029E6D9
:102EA00010B070470000000082B00190ADF8021031
:102EB00001980069BDF80210084204D0FFE7012024
:102EC0008DF8010003E000208DF80100FFE79DF878
:102ED000010002B07047000082B00190ADF802100E
:102EE0008DF801209DF8010028B1FFE7BDF8020030
:102EF0000199886105E0BDF802000004019988612C
:102F0000FFE702B07047000041F20000C5F6004044
:102F10000068000C7047000040F67820C2F20040C4
:102F2000006870470000000083B001900091019894
:102F300090F8410020283BD1FFE7FFE7019890F887
:102F40004000012804D1FFE702208DF80B0033E098
:102F50000199012081F84000FFE7FFE70199242053
:102F600081F8410001980168086820F001000860BC
:102F700001980168086820F480500860009A019860
:102F8000016808681043086001980168086840F00B
:102F9000010008600199202081F84100FFE70199B4
:102FA000002081F84000FFE700208DF80B0003E0CF
:102FB00002208DF80B00FFE79DF80B0003B070476F
:102FC00084B002900191029890F84100202840D1ED
:102FD000FFE7FFE7029890F84000012804D1FFE7DF
:102FE00002208DF80F0038E00299012081F840009E
:102FF000FFE7FFE70299242081F841000298016869
:10300000086820F0010008600298006800680090DD
:10301000009820F4706000900199009840EA012027
:103020000090009802990968086002980168086891
:1030300040F0010008600299202081F84100FFE77C
:103040000299002081F84000FFE700208DF80F0072
:1030500003E002208DF80F00FFE79DF80F0004B099
:10306000704700000000000081B0009001B0704780
:1030700082B001908DF80310ADF8002002B07047C7
:1030800080B584B00390039800688069029003982B
:103090000068006801909DF80900C00790B1FFE743
:1030A0009DF804100020B0EBD11F0BD0FFE703996F
:1030B000486C40F001004864039801684FF4807048
:1030C000C861FFE79DF8090000F004010020B0EBA3
:1030D000910F12D0FFE79DF804100020B0EBD11F34
:1030E0000BD0FFE70399486C40F008004864039850
:1030F00001684FF48060C861FFE79DF8090000F0A7
:1031000002010020B0EB510F12D0FFE79DF8041030
:103110000020B0EBD11F0BD0FFE70399486C40F0C3
:1031200002004864039801684FF40070C861FFE72B
:103130000398406C00909DF8000010F00B0F05D034
:10314000FFE70398009904F01FFDFFE704B080BD7E
:1031500080B582B00190019840F29411C2F2004112
:10316000884207D1FFE74CF2C070C0F6000008F0BB
:103170009BFD0FE0019840F2E811C2F20041884245
:1031800007D1FFE74CF2D470C0F6000008F08CFDC8
:10319000FFE7FFE702B080BD80B582B000900098E5
:1031A00020B9FFE701208DF8070073E0009890F840
:1031B000410040B9FFE70099002081F840000098E5
:1031C00000F092FAFFE70099242081F8410000986E
:1031D0000168086820F001000860009801684068F4
:1031E00020F07060086100980168886820F4004051
:1031F00088600098C068012807D1FFE7009801683F
:10320000806840F40040886006E0009801688068AB
:1032100040F404408860FFE70098C068022806D1A7
:10322000FFE7009801684FF400604860FFE70098EE
:103230000168486848F20002C0F20022104348606A
:1032400000980168C86820F40040C860009A1168BE
:10325000106953699269184340EA0220C860009AD5
:103260001168D069126A1043086000980168086804
:1032700040F001000860009900204864009A202175
:1032800082F8411000990863009981F842008DF896
:103290000700FFE79DF8070002B080BD00000000B6
:1032A00081B0009001B0704780B588B0DDF828C0CB
:1032B0000690ADF816100492ADF80E30069890F80E
:1032C0004100202840F0F680FFE7FFE7069890F8DD
:1032D0004000012804D1FFE702208DF81F00EDE037
:1032E0000699012081F84000FFE7FFE7FFF714FE91
:1032F0000290069802996A4611604FF4004101223B
:10330000192305F0D1FA20B1FFE701208DF81F0045
:10331000D4E00699222081F841000699102081F816
:1033200042000699002048640499069A5162BDF84B
:103330000E10069A5185069948630698408DB0F59F
:10334000807F14D3FFE70699FF2008850698BDF813
:10335000161090F82820EC4642F20043C8F2000311
:10336000CCF800304FF0807305F046FA14E0069870
:10337000408D069908850698BDF8161090F828200B
:10338000EC4642F20043C8F20003CCF800304FF0A4
:10339000007305F031FAFFE7FFE70698408D00283B
:1033A0005FD0FFE706980A99029A05F0D5FA20B196
:1033B000FFE701208DF81F0080E006980068406A52
:1033C0000699496A08700699486A01304862069968
:1033D000088D013808850699488D0138488506987A
:1033E000408DE8B3FFE70698008DC8BBFFE706985D
:1033F0000A9B02996A4611608021002205F054FA66
:1034000020B1FFE701208DF81F0057E00698408D9E
:10341000B0F5807F11D3FFE70699FF200885069855
:10342000BDF8161090F82820EC460023CCF80030A8
:103430004FF0807305F0E0F911E00698408D069991
:1034400008850698BDF8161090F82820EC46002351
:10345000CCF800304FF0007305F0CEF9FFE7FFE73E
:103460009BE706980A99029A05F016FB20B1FFE740
:1034700001208DF81F0021E0069801682020C86116
:1034800006990A6851684EF60003CFF600631940AA
:103490005160069981F841000699002081F84200A8
:1034A000FFE70699002081F84000FFE700208DF833
:1034B0001F0003E002208DF81F00FFE79DF81F00AA
:1034C00008B080BD0000000080B588B0DDF828C0DD
:1034D0000690ADF816100492ADF80E30069890F8EC
:1034E0004100202840F0F580FFE7FFE7069890F8BC
:1034F0004000012804D1FFE702208DF81F00ECE016
:103500000699012081F84000FFE7FFE7FFF704FD7F
:103510000290069802996A4611604FF40041012218
:10352000192305F0C1F920B1FFE701208DF81F0034
:10353000D3E00699212081F841000699102081F8F6
:1035400042000699002048640499069A5162BDF829
:103550000E10069A5185069948630698408DB0F57D
:10356000807F14D3FFE70699FF2008850698BDF8F1
:10357000161090F82820EC4642F20003C8F200032F
:10358000CCF800304FF0807305F036F914E006985F
:10359000408D069908850698BDF8161090F82820E9
:1035A000EC4642F20003C8F20003CCF800304FF0C2
:1035B000007305F021F9FFE7FFE70698408D00282A
:1035C0005ED0FFE706980A99029A05F0B9FA20B191
:1035D000FFE701208DF81F007FE006980168406A30
:1035E000007888620699486A013048620699488DD9
:1035F000013848850699088D013808850698408D60
:10360000E8B3FFE70698008DC8BBFFE706980A9B62
:1036100002996A4611608021002205F045F920B127
:10362000FFE701208DF81F0057E00698408DB0F5A8
:10363000807F11D3FFE70699FF2008850698BDF823
:10364000161090F82820EC460023CCF800304FF0FC
:10365000807305F0D1F811E00698408D0699088531
:103660000698BDF8161090F82820EC460023CCF8F8
:1036700000304FF0007305F0BFF8FFE7FFE79CE76D
:1036800006980A99029A05F007FA20B1FFE701208F
:103690008DF81F0021E0069801682020C861069976
:1036A0000A6851684EF60003CFF600631940516076
:1036B000069981F841000699002081F84200FFE751
:1036C0000699002081F84000FFE700208DF81F00D8
:1036D00003E002208DF81F00FFE79DF81F0008B0EF
:1036E00080BD00000000000080B5BCB03B90002011
:1036F0003A90399038903790369006A8C021FCF760
:10370000FBFF3B98006845F20041C4F2000188428B
:1037100045D1FFE70020079008210691279006A8D1
:1037200000F082FC18B1FFE7FEF78EF9FFE7FFE734
:1037300044F2E040C5F60200016841F00201016078
:10374000006800F0020005900598FFE7C020369061
:103750001220379000203890399004203A9040F29F
:103760000040C5F6020036A9FFF7BAF9FFE744F2B8
:10377000E840C5F60200016841F4001101600068EC
:1037800000F4001004900498FFE72020019002212B
:10379000002200F011F9019800F002F94EE03B9888
:1037A000006845F60001C4F20001884245D1FFE7F8
:1037B0000020079008210691279006A800F034FC0D
:1037C00018B1FFE7FEF740F9FFE7FFE744F2E040FA
:1037D000C5F60200016841F020010160006800F0B8
:1037E000200003900398FFE70320369012203790C3
:1037F00000203890399004203A9041F20040C5F6FC
:10380000020036A9FFF76CF9FFE744F2E840C5F67D
:103810000200016841F480010160006800F480004A
:1038200002900298FFE7222000900221002200F07F
:10383000C3F8009800F0B4F8FFE7FFE73CB080BDA4
:1038400081B0009001B0704781B0009001B0704726
:1038500040F20C00C2F20040027840F67821C2F239
:103860000041086810440860704700000000000034
:1038700080B582B0032000F0B7F801F0C5FE44F235
:103880001842C5F602021168C1F303234CF2BC6171
:10389000C0F60001CB5C03F01F03D84000900098F5
:1038A000126802F00F02895C01F01F01C84040F26B
:1038B0000401C2F200410860009840F20001C2F227
:1038C000004108600F2000F013F820B1FFE701204D
:1038D0008DF8070005E000F04FF800208DF8070094
:1038E000FFE79DF8070002B080BD00000000000067
:1038F00080B582B0009040F20C00C2F20040007827
:1039000020B9FFE701208DF8070030E040F2000009
:10391000C2F20040006840F20C01C2F200410A7895
:103920004FF47A71B1FBF2F1B0FBF1F002F0A0FDBF
:1039300020B1FFE701208DF8070018E000980F285C
:103940000DD8FFE700994FF0FF30002200F034F867
:10395000009840F21001C2F20041086003E001202B
:103960008DF8070003E000208DF80700FFE79DF8C1
:10397000070002B080BD000081B0FFE744F2F440D0
:10398000C5F60200016841F002010160006800F024
:10399000020000900098FFE701B0704700000000AF
:1039A00080B582B0ADF80600BDF9060007F024F836
:1039B00002B080BD0000000080B586B0ADF81600F2
:1039C0000491039207F030F80290BDF916000190BF
:1039D00002980499039A05F093FB0146019807F0B9
:1039E0002BF806B080BD000080B582B00190019830
:1039F00007F046F802B080BD80B584B0029044F66E
:103A00000C00C5F60200006800F004010020B0EBD5
:103A1000910F13D1FFE744F60C00C5F602000068D1
:103A200000F007000299884204D0FFE701208DF8DA
:103A30000F002EE000208DF80F002AE044F60C0164
:103A4000C5F60201086820F00700029A10430860DA
:103A5000FFF762FA0190FFE744F60400C5F60200A2
:103A6000006800F400510020B0EB513F0DD1FFE79A
:103A7000FFF752FA0199401AB0F57A7F04D9FFE7AF
:103A800001208DF80F0004E0E6E700208DF80F001C
:103A9000FFE79DF80F0004B080BD000000000000AB
:103AA00080B501F05DFD44F22041C5F602010968D0
:103AB000C1F302124CF2BC61C0F60001895C01F056
:103AC0001F01C84080BD000088B0079044F2284024
:103AD000C5F60200016801F0030106910068C0F319
:103AE0000530059044F22C40C5F602000068C0F392
:103AF00000100490049844F23C41C5F602010968A4
:103B000089B2C908484300EE100AB8EE400A8DEDAC
:103B1000020A0598002800F01B81FFE70698009034
:103B200048B1FFE70098012869D0FFE70098022814
:103B300000F08980ABE044F20040C5F60200006866
:103B400000F020010020B0EB511F33D0FFE744F21A
:103B50000040C5F602000068C0F3C10149F2000050
:103B6000C0F2D030C84003909DED030AB8EE400A81
:103B70009DED051AB8EE411A80EE010A44F2384074
:103B8000C5F6020000686FF35F2001EE100AB8EE80
:103B9000411A9DED022A9FED743A82EE032A31EE1E
:103BA000021AB7EE002A31EE021A20EE010A8DED5C
:103BB000010A23E09DED050AB8EE401A9FED6C0A5C
:103BC00080EE010A44F23840C5F6020000686FF347
:103BD0005F2001EE100AB8EE411A9DED022A9FED1A
:103BE000623A82EE032A31EE021AB7EE002A31EE73
:103BF000021A20EE010A8DED010AFFE76BE09DED50
:103C0000050AB8EE401A9FED590A80EE010A44F207
:103C10003840C5F6020000686FF35F2001EE100A1D
:103C2000B8EE411A9DED022A9FED4F3A82EE032A2B
:103C300031EE021AB7EE002A31EE021A20EE010A26
:103C40008DED010A47E09DED050AB8EE401A9FEDA3
:103C5000450A80EE010A44F23840C5F602000068C9
:103C60006FF35F2001EE100AB8EE411A9DED022AB3
:103C70009FED3D3A82EE032A31EE021AB7EE002A9A
:103C800031EE021A20EE010A8DED010A23E09DEDCE
:103C9000050AB8EE401A9FED350A80EE010A44F29B
:103CA0003840C5F6020000686FF35F2001EE100A8D
:103CB000B8EE411A9DED022A9FED2B3A82EE032ABF
:103CC00031EE021AB7EE002A31EE021A20EE010A96
:103CD0008DED010AFFE79DED010A44F23840C5F67B
:103CE0000200016889B2490A01EE101AB8EE411AC1
:103CF000B7EE002A31EE021A80EE010A0799BCEEF7
:103D0000C00A81ED000A9DED010A0168C1F3064178
:103D100001EE101AB8EE411A31EE021A80EE010AD5
:103D20000799BCEEC00A81ED010A9DED010A006809
:103D3000C0F3066001EE100AB8EE411A31EE021A25
:103D400080EE010A0798BCEEC00A80ED020A07E087
:103D50000799002008600799486007998860FFE785
:103D600008B0704720BCBE4B000000460024744AD7
:103D70000024744C0000000088B0079044F22840F2
:103D8000C5F60200016801F0030106910068C0F366
:103D90000550059044F22C40C5F602000068C0F3BF
:103DA00000200490049844F24441C5F602010968D9
:103DB00089B2C908484300EE100AB8EE400A8DEDFA
:103DC000020A0598002800F01B81FFE70698009082
:103DD00048B1FFE70098012869D0FFE70098022862
:103DE00000F08980ABE044F20040C5F602000068B4
:103DF00000F020010020B0EB511F33D0FFE744F268
:103E00000040C5F602000068C0F3C10149F200009D
:103E1000C0F2D030C84003909DED030AB8EE400ACE
:103E20009DED051AB8EE411A80EE010A44F24040B9
:103E3000C5F6020000686FF35F2001EE100AB8EECD
:103E4000411A9DED022A9FED743A82EE032A31EE6B
:103E5000021AB7EE002A31EE021A20EE010A8DEDA9
:103E6000010A23E09DED050AB8EE401A9FED6C0AA9
:103E700080EE010A44F24040C5F6020000686FF38C
:103E80005F2001EE100AB8EE411A9DED022A9FED67
:103E9000623A82EE032A31EE021AB7EE002A31EEC0
:103EA000021A20EE010A8DED010AFFE76BE09DED9D
:103EB000050AB8EE401A9FED590A80EE010A44F255
:103EC0004040C5F6020000686FF35F2001EE100A63
:103ED000B8EE411A9DED022A9FED4F3A82EE032A79
:103EE00031EE021AB7EE002A31EE021A20EE010A74
:103EF0008DED010A47E09DED050AB8EE401A9FEDF1
:103F0000450A80EE010A44F24040C5F6020000680E
:103F10006FF35F2001EE100AB8EE411A9DED022A00
:103F20009FED3D3A82EE032A31EE021AB7EE002AE7
:103F300031EE021A20EE010A8DED010A23E09DED1B
:103F4000050AB8EE401A9FED350A80EE010A44F2E8
:103F50004040C5F6020000686FF35F2001EE100AD2
:103F6000B8EE411A9DED022A9FED2B3A82EE032A0C
:103F700031EE021AB7EE002A31EE021A20EE010AE3
:103F80008DED010AFFE79DED010A44F24040C5F6C0
:103F90000200016889B2490A01EE101AB8EE411A0E
:103FA000B7EE002A31EE021A80EE010A0799BCEE44
:103FB000C00A81ED000A9DED010A0168C1F30641C6
:103FC00001EE101AB8EE411A31EE021A80EE010A23
:103FD0000799BCEEC00A81ED010A9DED010A006857
:103FE000C0F3066001EE100AB8EE411A31EE021A73
:103FF00080EE010A0798BCEEC00A80ED020A07E0D5
:104000000799002008600799486007998860FFE7D2
:1040100008B0704720BCBE4B000000460024744A24
:104020000024744C0000000080B59AB01890002065
:104030008DF857008DF856001898C07800070028B2
:1040400048D5FFE71898806E149078B1FFE7149870
:10405000B0F5801F13D0FFE71498B0F5001F16D0FD
:10406000FFE71498B0F5401F19D019E044F22C4135
:10407000C5F60201086840F40030086014E01898A2
:104080000830022105F078F88DF857000CE01898F8
:104090002830022105F058F98DF8570004E003E0BC
:1040A00001208DF85700FFE79DF8570060B9FFE742
:1040B00044F25041C5F60201086820F44010189AF5
:1040C000926E1043086004E09DF857008DF856008A
:1040D000FFE7FFE718984078C007002840D0FFE7C7
:1040E0001898806D1390042820D81399DFE801F008
:1040F000030C141C1D0044F22C41C5F60201086893
:1041000040F40030086015E018980830002105F0F0
:1041100033F88DF857000DE018982830002105F08D
:1041200013F98DF8570005E004E003E001208DF855
:104130005700FFE79DF8570060B9FFE744F2504190
:10414000C5F60201086820F00700189A926D104326
:10415000086004E09DF857008DF85600FFE7FFE780
:1041600018984078800700284BD5FFE71898C06D55
:10417000129088B1FFE71298402816D0FFE71298F6
:1041800080281AD0FFE71298C0281ED0FFE71298A7
:10419000B0F5807F1AD01AE044F22C41C5F6020136
:1041A000086840F40030086015E0189808300021D5
:1041B00004F0E2FF8DF857000DE018982830002138
:1041C00005F0C2F88DF8570005E004E003E0012097
:1041D0008DF85700FFE79DF8570060B9FFE744F2FC
:1041E0005041C5F60201086820F4E070189AD26DBB
:1041F0001043086004E09DF857008DF85600FFE773
:10420000FFE7189840784007002850D5FFE7189836
:10421000D0F8A8001190A0B1FFE71198B0F5001FE9
:1042200018D0FFE71198B0F5800F1BD0FFE7119869
:10423000B0F5C00F1ED0FFE71198B0F5000F1AD0EF
:104240001AE044F22C41C5F60201086840F400303F
:10425000086015E018980830002104F08DFF8DF8F3
:1042600057000DE018982830002105F06DF88DF802
:10427000570005E004E003E001208DF85700FFE758
:104280009DF8570068B9FFE744F25841C5F60201AE
:10429000086820F46000189AD2F8A820104308603B
:1042A00004E09DF857008DF85600FFE7FFE71898E7
:1042B00040780007002850D5FFE71898D0F8AC00E8
:1042C0001090A0B1FFE71098B0F1807F18D0FFE701
:1042D0001098B0F1007F1BD0FFE71098B0F1407F3D
:1042E0001ED0FFE71098B0F1806F1AD01AE044F2A8
:1042F0002C41C5F60201086840F40030086015E062
:1043000018980830002104F037FF8DF857000DE0B1
:1043100018982830002105F017F88DF8570005E0AF
:1043200004E003E001208DF85700FFE79DF85700F7
:1043300068B9FFE744F25841C5F60201086820F069
:10434000E060189AD2F8AC201043086004E09DF8B1
:1043500057008DF85600FFE7FFE71898C0788007F0
:1043600000283ED5FFE71898C06C0F90F0B1FFE72A
:104370000F98102808D0FFE70F9820280DD0FFE7EE
:104380000F98302811D012E044F22C41C5F60201FA
:10439000086840F4003008600DE0189808300221E9
:1043A00004F0EAFE8DF8570005E004E003E0012088
:1043B0008DF85700FFE79DF8570060B9FFE744F21A
:1043C0004C41C5F60201086820F03000189AD26C02
:1043D0001043086004E09DF857008DF85600FFE791
:1043E000FFE718984078C00600284ED5FFE71898D8
:1043F000006E0E90A0B1FFE70E98B0F5805F18D068
:10440000FFE70E98B0F5005F1BD0FFE70E98B0F500
:10441000405F1ED0FFE70E98B0F5804F1AD01AE02B
:1044200044F22C41C5F60201086840F400300860EF
:1044300015E018980830002104F09EFE8DF8570012
:104440000DE018982830002104F07EFF8DF8570009
:1044500005E004E003E001208DF85700FFE79DF838
:10446000570060B9FFE744F25041C5F60201086801
:1044700020F4E040189A126E1043086004E09DF8A2
:1044800057008DF85600FFE7FFE718984078800640
:1044900000284CD5FFE71898406E0D90C8B1FFE793
:1044A0000D98B0F5803F15D0FFE70D98B0F5003FAF
:1044B00018D0FFE70D98B0F5403F1BD0FFE70D98EF
:1044C000B0F5802F17D0FFE70D98B0F5A02F13D0CF
:1044D00013E016E018980830012104F04DFE8DF825
:1044E00057000EE018982830012104F02DFF8DF8B8
:1044F000570006E005E004E003E001208DF85700D6
:10450000FFE79DF8570060B9FFE744F25041C5F658
:104510000201086820F4E020189A526E10430860E7
:1045200004E09DF857008DF85600FFE7FFE7189864
:104530004078400600284ED5FFE71898D0F8B00024
:104540000C90C8B1FFE70C98B0F1805F15D0FFE781
:104550000C98B0F1005F18D0FFE70C98B0F1405F05
:104560001BD0FFE70C98B0F1804F17D0FFE70C98F5
:10457000B0F1A04F13D013E016E0189808300121D5
:1045800004F0FAFD8DF857000EE01898283001214C
:1045900004F0DAFE8DF8570006E005E004E003E0E1
:1045A00001208DF85700FFE79DF8570068B9FFE735
:1045B00044F25841C5F60201086820F0E040189A1C
:1045C000D2F8B0201043086004E09DF857008DF841
:1045D0005600FFE7FFE718984078000600283BD513
:1045E000FFE71898006F0B90D8B1FFE70B98B0F178
:1045F000805F05D0FFE70B98B0F1005F09D011E0B4
:1046000044F22C41C5F60201086840F4003008600D
:104610000CE018980830012104F0AEFD8DF8570029
:1046200004E003E001208DF85700FFE79DF85700F4
:1046300060B9FFE744F25041C5F60201086820F076
:104640004050189A126F1043086004E09DF857001C
:104650008DF85600FFE7FFE71898C078C0070028DC
:1046600037D0FFE71898806C0A90032817D80A996A
:10467000DFE801F014020B1344F22C41C5F60201ED
:10468000086840F4003008600DE0189808300221F6
:1046900004F072FD8DF8570005E004E003E001200E
:1046A0008DF85700FFE79DF8570060B9FFE744F227
:1046B0004C41C5F60201086820F00300189A926C7C
:1046C0001043086004E09DF857008DF85600FFE79E
:1046D000FFE7189880784006002840F1B480FFE793
:1046E00044F60001C5F60201086840F480700860D5
:1046F000FEF712FC1690FFE744F60000C5F6020034
:104700000068C00500280CD4FFE7FEF705FC1699E9
:10471000401A652804D3FFE703208DF8570000E016
:10472000EAE79DF85700002840F08780FFE744F251
:104730007040C5F60200006800F440701899D1F886
:10474000B41001F44071884213D0FFE744F2704185
:10475000C5F60201086820F440701790086840F41C
:1047600080300860086820F480300860179808607E
:10477000FFE71898D0F8B400B0F5807F1FD1FFE7AD
:10478000FEF7CAFB1690FFE744F27040C5F6020040
:10479000006800F002010020B0EB510F0ED1FFE7DE
:1047A000FEF7BAFB1699401A41F28931884204D3C8
:1047B000FFE703208DF8570000E0E5E7FFE79DF8ED
:1047C0005700A0BBFFE7FFE71898D0F8B40000F44B
:1047D0004070B0F5407F13D1FFE744F21041C5F6B9
:1047E0000201086820F47C50189AD2F8B4204FF6E1
:1047F000F043C0F6FF731A4040EA1210086008E068
:1048000044F21041C5F60201086820F47C500860AB
:10481000FFE71898D0F8B4206FF31F3244F27041CC
:10482000C5F60201086810430860FFE704E09DF840
:1048300057008DF85600FFE704E09DF857008DF80B
:104840005600FFE7FFE718980068C007002800F04F
:104850004C80FFE71898C06F099028282BD8099939
:10486000DFE801F0152929292929292916292929CB
:10487000292929291E2929292929292926292929B6
:10488000292929292729292929292929280016E020
:1048900018980830012104F06FFC8DF857000EE0E5
:1048A00018982830012104F04FFD8DF8570006E0DC
:1048B00005E004E003E001208DF85700FFE79DF8D4
:1048C000570060B9FFE744F25441C5F60201086899
:1048D00020F03800189AD26F1043086004E09DF869
:1048E00057008DF85600FFE7FFE71898007880071B
:1048F000002839D5FFE71898806F0890052819D847
:104900000899DFE801F003040C14151616E0189856
:104910000830012104F030FC8DF857000EE01898A3
:104920002830012104F010FD8DF8570006E005E065
:1049300004E003E001208DF85700FFE79DF85700E1
:1049400060B9FFE744F25441C5F60201086820F05F
:104950000700189A926F1043086004E09DF8570012
:104960008DF85600FFE7FFE7189800784007002809
:104970003BD5FFE71898D0F894000790052819D880
:104980000799DFE801F003040C14151616E01898D7
:104990000830012104F0F0FB8DF857000EE0189864
:1049A0002830012104F0D0FC8DF8570006E005E026
:1049B00004E003E001208DF85700FFE79DF8570061
:1049C00068B9FFE744F25841C5F60201086820F0D3
:1049D0000700189AD2F894201043086004E09DF86C
:1049E00057008DF85600FFE7FFE71898007880061B
:1049F00000284ED5FFE71898D0F890000690C8B16F
:104A0000FFE70698B0F1805F15D0FFE70698B0F198
:104A1000005F18D0FFE70698B0F1405F1BD0FFE7BA
:104A20000698B0F1804F17D0FFE70698B0F1A04F7D
:104A300013D013E016E018980830002104F09CFB16
:104A40008DF857000EE018982830022104F07CFC05
:104A50008DF8570006E005E004E003E001208DF842
:104A60005700FFE79DF8570068B9FFE744F254414B
:104A7000C5F60201086820F0E040189AD2F89020AC
:104A80001043086004E09DF857008DF85600FFE7DA
:104A9000FFE718980078400600284ED5FFE71898E1
:104AA000D0F89C000590C8B1FFE70598B0F5806F7D
:104AB00015D0FFE70598B0F5006F18D0FFE705980F
:104AC000B0F5406F1BD0FFE70598B0F5805F17D0B9
:104AD000FFE70598B0F5A05F13D013E016E0189833
:104AE0000830002104F048FB8DF857000EE01898BC
:104AF0002830022104F028FC8DF8570006E005E07C
:104B000004E003E001208DF85700FFE79DF857000F
:104B100068B9FFE744F25841C5F60201086820F47D
:104B2000E050189AD2F89C201043086004E09DF8E9
:104B300057008DF85600FFE7FFE718980078000649
:104B400000284ED5FFE71898D0F8A0000490C8B10F
:104B5000FFE70498B0F5005F15D0FFE70498B0F5C3
:104B6000804F18D0FFE70498B0F5C04F1BD0FFE787
:104B70000498B0F5004F17D0FFE70498B0F5204F28
:104B800013D013E016E018980830002104F0F4FA6E
:104B90008DF857000EE018982830022104F0D4FB5D
:104BA0008DF8570006E005E004E003E001208DF8F1
:104BB0005700FFE79DF8570068B9FFE744F25841F6
:104BC000C5F60201086820F46040189AD2F8A020C7
:104BD0001043086004E09DF857008DF85600FFE789
:104BE000FFE7189800780007002820D5FFE71898FD
:104BF000D0F88400B0F5805F0CD1FFE7189828301A
:104C0000022104F0A1FB20B1FFE701208DF856003E
:104C1000FFE7FFE744F25441C5F60201086820F4BB
:104C20004050189AD2F8842010430860FFE7189883
:104C30000078C006002820D5FFE71898D0F8980023
:104C4000B0F5807F0CD1FFE718982830022104F0DE
:104C50007BFB20B1FFE701208DF85600FFE7FFE75F
:104C600044F25841C5F60201086820F44070189AD1
:104C7000D2F8982010430860FFE718988078000762
:104C800000283CD5FFE71898D0F8A400039050B155
:104C9000FFE70398B0F5803F0DD0FFE70398B0F52C
:104CA000003F10D010E018980830002104F064FA9A
:104CB0008DF857000CE018982830022104F044FBCE
:104CC0008DF8570004E003E001208DF85700FFE75E
:104CD0009DF8570068B9FFE744F25841C5F6020154
:104CE000086820F44030189AD2F8A42010430860D5
:104CF00004E09DF857008DF85600FFE7FFE718988D
:104D00008078400700283FD5FFE71898D0F8880042
:104D10000290B0F5801F0AD0FFE70298B0F5001F9F
:104D20000ED0FFE70298B0F5401F11D011E044F219
:104D30002C41C5F60201086840F4003008600CE020
:104D400018982830012104F0FFFA8DF8570004E08C
:104D500003E001208DF85700FFE79DF8570068B980
:104D6000FFE744F25441C5F60201086820F4401000
:104D7000189AD2F888201043086004E09DF8570084
:104D80008DF85600FFE7FFE718988078C007A8B3B2
:104D9000FFE71898006D019028B1FFE70198B0F582
:104DA000803F09D010E044F22C41C5F602010868AA
:104DB00040F4003008600BE018980830022104F03D
:104DC000DBF98DF8570003E001208DF85700FFE76D
:104DD0009DF8570060B9FFE744F24C41C5F6020167
:104DE000086820F48030189A126D1043086004E0BF
:104DF0009DF857008DF85600FFE7FFE71898C07838
:104E0000800600280CD5FFE718982830022104F00E
:104E10009BFA20B1FFE701208DF85600FFE7FFE77E
:104E200018988078800700283CD5FFE71898D0F8BC
:104E300080000090D0B1FFE70098B0F5807F0AD0E5
:104E4000FFE70098B0F5007F0ED0FFE70098B0F5BF
:104E5000407F0AD00BE044F22C41C5F602010868FD
:104E600040F40030086006E005E004E003E00120C3
:104E70008DF85700FFE79DF8570068B9FFE744F247
:104E80005441C5F60201086820F44070189AD2F81F
:104E900080201043086004E09DF857008DF856000C
:104EA000FFE7FFE718988078C00600280CD5FFE7D9
:104EB00044F25041C5F60201086820F00040189AFB
:104EC000526F10430860FFE71898C078C0060028AA
:104ED0000DD5FFE744F21041C5F60201086820F441
:104EE0008040189AD2F8B82010430860FFE718985D
:104EF0008078800600280CD5FFE744F25041C5F6C3
:104F00000201086820F08070189AD26E1043086081
:104F1000FFE71898C0784006002811D5FFE7FFE7A3
:104F200044F21041C5F60201086820F40040086010
:104F30001898D0F8BC20086810430860FFE7FFE726
:104F40001898C078000600280CD5FFE744F24C41C1
:104F5000C5F60201086820F04050189A526D1043BF
:104F60000860FFE718988078000600280DD5FFE755
:104F700044F25441C5F60201086820F44000189A32
:104F8000D2F88C2010430860FFE718980079C0071A
:104F900090B1FFE718980830002104F0EDF88DF883
:104FA00057009DF8570008B9FFE704E09DF8570047
:104FB0008DF85600FFE7FFE7189800798007002872
:104FC00012D5FFE718980830012104F0D5F88DF8C4
:104FD00057009DF8570008B9FFE704E09DF8570017
:104FE0008DF85600FFE7FFE7189800794007002882
:104FF00012D5FFE718980830022104F0BDF88DF8AB
:1050000057009DF8570008B9FFE704E09DF85700E6
:105010008DF85600FFE7FFE7189800790007002891
:1050200012D5FFE718982830002104F08DF98DF88B
:1050300057009DF8570008B9FFE704E09DF85700B6
:105040008DF85600FFE7FFE718980079C0060028A2
:1050500012D5FFE718982830012104F075F98DF872
:1050600057009DF8570008B9FFE704E09DF8570086
:105070008DF85600FFE7FFE71898007980060028B2
:1050800012D5FFE718982830022104F05DF98DF859
:1050900057009DF8570008B9FFE704E09DF8570056
:1050A0008DF85600FFE7FFE79DF8560020B9FFE7AF
:1050B00000208DF8670003E001208DF86700FFE70E
:1050C0009DF867001AB080BD80B586B0049003914A
:1050D000049820B9FFE701208DF817003CE20398FF
:1050E00042F20001C5F20021096801F00F01884277
:1050F00016D9FFE742F20000C5F20020016821F056
:105100000F01039A11430160006800F00F0003993A
:10511000884204D0FFE701208DF817001CE2FFE76A
:10512000049800784007002819D5FFE70498006923
:1051300044F21841C5F60201096801F07001884285
:105140000CD9FFE744F21841C5F60201086820F0C7
:105150007000049A126910430860FFE7FFE70498A3
:1051600000780007002819D5FFE70498406944F249
:105170001C41C5F60201096801F0700188420CD992
:10518000FFE744F21C41C5F60201086820F07000F8
:10519000049A526910430860FFE7FFE7049800781B
:1051A000C006002819D5FFE70498806944F21C4125
:1051B000C5F60201096801F4E06188420CD9FFE7F5
:1051C00044F21C41C5F60201086820F4E060049A2C
:1051D000926910430860FFE7FFE7049800788006B3
:1051E000002819D5FFE70498C06944F22041C5F6AC
:1051F0000201096801F0700188420CD9FFE744F20E
:105200002041C5F60201086820F07000049AD269B6
:1052100010430860FFE7FFE7049800788007002844
:1052200019D5FFE70498C06844F21841C5F6020199
:10523000096801F00F0188420CD9FFE744F21841D8
:10524000C5F60201086820F00F00049AD2681043E6
:105250000860FFE7FFE704980078C007002800F027
:105260008C80FFE744F21841C5F60201086820F47B
:105270007060049A9268104308600498406802289D
:1052800011D1FFE744F20040C5F60200006800F4C7
:1052900000310020B0EB514F04D1FFE701208DF821
:1052A000170059E13EE004984068032811D1FFE758
:1052B00044F20040C5F60200006800F000710020D2
:1052C000B0EB516F04D1FFE701208DF8170043E1E7
:1052D00027E004984068012811D1FFE744F200401C
:1052E000C5F60200006800F480710020B0EB112FB9
:1052F00004D1FFE701208DF817002DE110E044F202
:105300000040C5F60200006800F004010020B0EB88
:10531000910F04D1FFE701208DF817001CE1FFE792
:10532000FFE7FFE744F21041C5F60201086820F0EC
:105330000700049A526810430860FDF7EDFD0190E4
:10534000FFE744F21040C5F60200006800F03800A4
:1053500004994968B0EBC10F0ED0FFE7FDF7DCFD03
:105360000199401A41F28931884204D3FFE70320B2
:105370008DF81700F0E0E4E7FFE704980078800775
:10538000002819D5FFE70498C06844F21841C5F613
:105390000201096801F00F0188420CD2FFE744F2D4
:1053A0001841C5F60201086820F00F00049AD2687F
:1053B00010430860FFE7FFE7039842F20001C5F2DF
:1053C0000021096801F00F01884216D2FFE742F27E
:1053D0000000C5F20020016821F00F01039A11437B
:1053E0000160006800F00F000399884204D0FFE7D5
:1053F00001208DF81700AFE0FFE704980078400720
:10540000002819D5FFE70498006944F21841C5F651
:105410000201096801F0700188420CD2FFE744F2F2
:105420001841C5F60201086820F07000049A12695C
:1054300010430860FFE7FFE70498007800070028A2
:1054400019D5FFE70498406944F21C41C5F60201F2
:10545000096801F0700188420CD2FFE744F21C4158
:10546000C5F60201086820F07000049A52691043E2
:105470000860FFE7FFE704980078C006002819D508
:10548000FFE70498806944F21C41C5F602010968EF
:1054900001F4E06188420CD2FFE744F21C41C5F6FA
:1054A0000201086820F4E060049A926910430860E1
:1054B000FFE7FFE7049800788006002819D5FFE78A
:1054C0000498C06944F22041C5F60201096801F060
:1054D000700188420CD2FFE744F22041C5F6020178
:1054E000086820F07000049AD26910430860FFE752
:1054F000FFE700F089F844F21842C5F6020211688D
:10550000C1F303234CF2BC61C0F60001CB5C03F095
:105510001F03D84000900098126802F00F02895CC7
:1055200001F01F01C84040F20401C2F200410860CE
:10553000009840F20001C2F20041086040F2100001
:10554000C2F200400068FEF7D3F98DF80B009DF819
:105550000B008DF81700FFE79DF8170006B080BD1F
:1055600080B582B000F050F844F21842C5F602024D
:105570001168C1F303234CF2BC61C0F60001CB5C9F
:1055800003F01F03D84001900198126802F00F0247
:10559000895C01F01F0120FA01F140F20400C2F21F
:1055A00000400160019940F20002C2F20042116025
:1055B000006802B080BD000080B5FFF7D1FF44F263
:1055C0001C41C5F602010968C1F302124CF2BC612C
:1055D000C0F60001895C01F01F01C84080BD0000D9
:1055E00080B5FFF7BDFF44F21C41C5F60201096812
:1055F000C1F302224CF2BC61C0F60001895C01F0EB
:105600001F01C84080BD00008AB044F21040C5F6BA
:105610000200006800F0380001460191182800F2ED
:1056200069810199DFE811F01900660166016601E0
:1056300066016601660166013A006601660166015F
:105640006601660166016601400066016601660149
:105650006601660166016601460044F20040C5F637
:105660000200006800F020010020B0EB511F0ED0B6
:10567000FFE744F20040C5F602000068C0F3C10134
:1056800049F20000C0F2D030C840029005E049F273
:105690000000C0F2D0300290FFE731E140F6001088
:1056A000C0F23D0002902BE147F64000C0F27D10B1
:1056B000029025E144F22840C5F60200016801F09D
:1056C000030108910068C0F30510079044F22C40D4
:1056D000C5F60200006800F001000690069844F24A
:1056E0003441C5F60201096889B2C908484300EE91
:1056F000100AB8EE400A8DED040A0798002800F061
:10570000F580FFE70898009048B1FFE7009801286E
:1057100069D0FFE70098022800F08980ABE044F2EE
:105720000040C5F60200006800F020010020B0EB48
:10573000511F33D0FFE744F20040C5F60200006875
:10574000C0F3C10149F20000C0F2D030C84005905A
:105750009DED050AB8EE400A9DED071AB8EE411A14
:1057600080EE010A44F23040C5F6020000686FF393
:105770005F2001EE100AB8EE411A9DED042A9FED5C
:10578000633A82EE032A31EE021AB7EE002A31EEB6
:10579000021A20EE010A8DED030A23E09DED070AAF
:1057A000B8EE401A9FED5B0A80EE010A44F23040E9
:1057B000C5F6020000686FF35F2001EE100AB8EE34
:1057C000411A9DED042A9FED513A82EE032A31EEF3
:1057D000021AB7EE002A31EE021A20EE010A8DED10
:1057E000030AFFE76BE09DED070AB8EE401A9FED54
:1057F000480A80EE010A44F23040C5F60200006813
:105800006FF35F2001EE100AB8EE411A9DED042AF5
:105810009FED3E3A82EE032A31EE021AB7EE002ADD
:1058200031EE021A20EE010A8DED030A47E09DEDEC
:10583000070AB8EE401A9FED340A80EE010A44F2DE
:105840003040C5F6020000686FF35F2001EE100AD9
:10585000B8EE411A9DED042A9FED2C3A82EE032A00
:1058600031EE021AB7EE002A31EE021A20EE010ADA
:105870008DED030A23E09DED070AB8EE401A9FED77
:10588000240A80EE010A44F23040C5F602000068A6
:105890006FF35F2001EE100AB8EE411A9DED042A65
:1058A0009FED1A3A82EE032A31EE021AB7EE002A71
:1058B00031EE021A20EE010A8DED030AFFE744F2F1
:1058C0003040C5F60200006881B2012000EB512093
:1058D00009909DED030A9DED091AB8EE411A80EE7C
:1058E000010ABCEEC00A8DED020A02E0002002901F
:1058F000FFE705E040F60010C0F23D000290FFE730
:1059000002980AB0704700BF20BCBE4B00000046A2
:105910000024744A0024744C80B58CB00A900A9814
:1059200028B9FFE701208DF82F0000F09DBD0A98EF
:105930000078C007002800F0B980FFE744F210406B
:10594000C5F60200006800F03800069044F22840D6
:10595000C5F6020000680590069810280AD0FFE7F7
:10596000069818281CD1FFE7059800F003000228CC
:1059700016D1FFE744F20040C5F60200006800F4CB
:1059800000310020B0EB514F09D0FFE70A98406882
:1059900028B9FFE701208DF82F0000F065BD84E0F5
:1059A000FFE70A984068B0F5803F09D1FFE744F26D
:1059B0000041C5F60201086840F48030086032E01A
:1059C0000A98406868B9FFE744F20041C5F6020151
:1059D000086820F480300860086820F4802008609F
:1059E00020E00A984068B0F5A02F0DD1FFE744F2FF
:1059F0000041C5F60201086840F48020086008688C
:105A000040F4803008600CE044F20041C5F6020129
:105A1000086820F480300860086820F4802008605E
:105A2000FFE7FFE7FFE7FFE70A984068F0B1FFE70D
:105A3000FDF772FA0990FFE744F20040C5F6020054
:105A4000006800F400310020B0EB514F0DD1FFE7AA
:105A5000FDF762FA0999401A652805D3FFE703208C
:105A60008DF82F0000F000BDE6E71DE0FDF754FAC9
:105A70000990FFE744F20040C5F60200006800F418
:105A800000310020B0EB514F0DD0FFE7FDF744FA95
:105A90000999401A652805D3FFE703208DF82F00E8
:105AA00000F0E2BCE6E7FFE7FFE7FFE70A980078CF
:105AB0008007002840F11681FFE744F21040C5F648
:105AC0000200006800F03800049044F22840C5F657
:105AD000020000680390049850B1FFE7049818286A
