:020000040800F2
:10000000000E002439030008C16F0008F15C0008ED
:10001000B96F0008310500082188000800000000C1
:10002000000000000000000000000000E173000874
:10003000390500080000000039700008417400080C
:100040005303000853030008530300085303000838
:100050005303000853030008530300084105000838
:100060005303000853030008530300085303000818
:100070005303000853030008530300085303000808
:1000800053030008530300085303000853030008F8
:1000900053030008530300085303000853030008E8
:1000A00053030008530300085303000853030008D8
:1000B00053030008017700085303000853030008A6
:1000C000F95C000853030008095D000853030008A9
:1000D0005303000811880008530300085303000865
:1000E00053030008530300080000000053030008F6
:1000F0005303000853030008530300085303000888
:100100005303000853030008530300085303000877
:100110005303000853030008530300085303000867
:100120005303000853030008530300085303000857
:100130005303000853030008530300085303000847
:1001400000000000000000000000000000000000AF
:100150005303000853030008530300085303000827
:100160005303000853030008530300085303000817
:100170005303000853030008530300085303000807
:1001800053030008530300085303000853030008F7
:1001900053030008530300085303000853030008E7
:1001A00053030008530300085303000853030008D7
:1001B00053030008530300085303000853030008C7
:1001C00053030008530300085303000853030008B7
:1001D00053030008530300085303000853030008A7
:1001E0005303000853030008530300085303000897
:1001F0005303000853030008530300085303000887
:100200005303000853030008530300085303000876
:100210005303000853030008530300085303000866
:1002200053030008530300085303000800000000B4
:1002300053030008530300080000000053030008A4
:100240005303000853030008530300085303000836
:100250005303000853030008530300085303000826
:100260005303000853030008530300085303000816
:100270005303000853030008530300080000000064
:100280005303000853030008530300080000000054
:10029000000000005303000800F002F800F03CF8F2
:1002A0000AA090E8000C82448344AAF10107DA45D1
:1002B00001D100F031F8AFF2090EBAE80F0013F0E7
:1002C000010F18BFFB1A43F001031847A486000072
:1002D000C4860000103A24BF78C878C1FAD8520703
:1002E00024BF30C830C144BF04680C6070470000B0
:1002F0000023002400250026103A28BF78C1FBD82F
:10030000520728BF30C148BF0B6070471FB508F0C7
:1003100005FB1FBD10B510BD00F0D0F81146FFF76A
:10032000F5FF08F0E5FA00F0EEF803B4FFF7F2FF8E
:1003300003BC00F0F5F80000094880470948004771
:10034000FEE7FEE7FEE7FEE7FEE7FEE7FEE7FEE785
:10035000FEE7FEE704480549054A064B70470000E2
:10036000A17500089902000800020024000E002474
:10037000000600240006002453EA020C00F0698005
:100380002DE9F04B4FF00006002B1FBFB3FA83F5A9
:1003900003FA05F424FA05F65E4012BF1643B2FADA
:1003A00082F502FA05F4C5F120051EBF22FA05FC0C
:1003B00044EA0C04203556EA044C4FEA144418BFB2
:1003C000641C4FF000084FF00009904271EB030CE1
:1003D00039D3002919BFB1FA81F701FA07F6B0FA4B
:1003E00080F700FA07F6C7F120071EBF20FA07FCC6
:1003F00046EA0C062037B6FBF4FCA7EB0507103FD6
:1004000007F01F0BCBF120062CFA06F60CFA0BFBBB
:1004100044BFB3460026202FA4BF5E464FF0000B1A
:100420005BEA060C08BF4FF0010B19EB0B0948EB18
:100430000608ABFB027C06FB02CC0BFB03CCC01B0B
:1004400071EB0C01C1E70B46024641464846BDE848
:10045000F08B13B5084318BF4FF0FF300146AFF3E0
:100460000080BDE81C4070474FF0000200B5134605
:1004700094469646203922BFA0E80C50A0E80C50C4
:10048000B1F12001BFF4F7AF090728BFA0E80C5075
:1004900048BF0CC05DF804EB890028BF40F8042B6E
:1004A00008BF704748BF20F8022B11F0804F18BFDB
:1004B00000F8012B7047704770477047754600F091
:1004C0002BF8AE4605006946534620F007008546E6
:1004D00018B020B5FFF73EFFBDE820404FF0000602
:1004E0004FF000074FF000084FF0000BAC46ACE8AF
:1004F000C009ACE8C009ACE8C009ACE8C00921F00B
:1005000007018D46704710B50446AFF300802046C2
:10051000BDE81040FFF709BF0048704710000024F5
:1005200001491820ABBEFEE726000200704700001C
:10053000FFE7FEE700000000704700000000000039
:1005400080B5022001F030F880BD000000000000FE
:1005500081B0EFF3108072B60090FFE7FEE7000075
:1005600080B58AB0089001F03FFA0490089828B945
:10057000FFE701208DF8270000F0AABC089890F84A
:10058000350002280ED0FFE7089980204865FFE774
:100590000899002081F83400FFE701208DF827003A
:1005A00000F096BC0898016801201022C4F20202F3
:1005B0009142039000F0A380FFE7089801680120B2
:1005C0002822C4F202029142039000F09880FFE7D3
:1005D0000898016801204022C4F20202914203906F
:1005E00000F08D80FFE70898016801205822C4F2CE
:1005F00002029142039000F08280FFE708980168B0
:1006000001207022C4F202029142039077D0FFE7EA
:100610000898016801208822C4F2020291420390E6
:100620006DD0FFE7089801680120A022C4F2020201
:100630009142039063D0FFE7089801680120B82237
:10064000C4F202029142039059D0FFE70898016872
:10065000012040F21042C4F20202914203904ED0B7
:10066000FFE708980168012040F22842C4F2020224
:100670009142039043D0FFE708980168012040F2BF
:100680004042C4F202029142039038D0FFE708983A
:100690000168012040F25842C4F2020291420390E4
:1006A0002DD0FFE708980168012040F27042C4F2A3
:1006B00002029142039022D0FFE7089801680120CE
:1006C00040F28842C4F202029142039017D0FFE741
:1006D00008980168012040F2A042C4F2020291424F
:1006E00003900CD0FFE7089800684FF64831CBF62E
:1006F000FD710844B0FA80F040090390FFE70398C9
:10070000C00780B1FFE708980168086820F01E0064
:10071000086008980168486920F0800048610898DE
:100720000068059009E008980168086820F00E004C
:100730000860089800680590FFE7089801680120A4
:100740001022C4F202029142029000F00381FFE7FE
:100750000898016801202822C4F202029142029006
:1007600000F0F880FFE70898016801204022C4F2F9
:1007700002029142029000F0ED80FFE708980168C4
:1007800001205822C4F202029142029000F0E2805D
:10079000FFE70898016801207022C4F2020291422A
:1007A000029000F0D780FFE70898016801208822B6
:1007B000C4F202029142029000F0CC80FFE7089858
:1007C00001680120A022C4F202029142029000F0CE
:1007D000C180FFE7089801680120B822C4F2020234
:1007E0009142029000F0B680FFE70898016801206E
:1007F00040F21042C4F202029142029000F0AA803C
:10080000FFE708980168012040F22842C4F2020282
:100810009142029000F09E80FFE708980168012055
:1008200040F24042C4F202029142029000F09280F3
:10083000FFE708980168012040F25842C4F2020222
:100840009142029000F08680FFE70898016801203D
:1008500040F27042C4F20202914202907AD0FFE765
:1008600008980168012040F28842C4F202029142D5
:1008700002906FD0FFE708980168012040F2A04283
:10088000C4F202029142029064D0FFE70898016826
:10089000012040F2B842C4F202029142029059D0C3
:1008A000FFE708980168012045F20842C5F60202F8
:1008B000914202904ED0FFE708980168012045F26E
:1008C0001C42C5F602029142029043D0FFE708980D
:1008D0000168012045F23042C5F6020291420290C1
:1008E00038D0FFE708980168012045F24442C5F678
:1008F0000202914202902DD0FFE708980168012082
:1009000045F25842C5F602029142029022D0FFE71A
:1009100008980168012045F26C42C5F60202914236
:10092000029017D0FFE708980168012045F2804245
:10093000C5F60202914202900CD0FFE708980068C9
:100940004AF66C31CAF2FD710844B0FA80F04009F1
:100950000290FFE70298C00738B1FFE70898016EE0
:10096000086820F480700860FFE70898006810218C
:10097000C4F20201884200F08180FFE70898006815
:100980002821C4F20201884278D0FFE70898006865
:100990004021C4F20201884270D0FFE70898006845
:1009A0005821C4F20201884268D0FFE70898006825
:1009B0007021C4F20201884260D0FFE70898006805
:1009C0008821C4F20201884258D0FFE708980068E5
:1009D000A021C4F20201884250D0FFE708980068C5
:1009E000B821C4F20201884248D0FFE708980068A5
:1009F00040F21041C4F2020188423FD0FFE708985C
:100A0000006840F22841C4F20201884236D0FFE774
:100A10000898006840F24041C4F2020188422DD09B
:100A2000FFE70898006840F25841C4F2020188428A
:100A300024D0FFE70898006840F27041C4F2020138
:100A400088421BD0FFE70898006840F28841C4F252
:100A50000201884212D0FFE70898006840F2A041E6
:100A6000C4F20201884209D0FFE70898006840F20A
:100A7000B841C4F20201884207D1FFE70898016833
:100A8000086820F00100086006E00898016808681E
:100A900020F001000860FFE7FFE705980068C00745
:100AA000C8B1FFE700F0A0FF0499401A062811D34F
:100AB000FFE70899202048650899032081F8350050
:100AC000FFE70899002081F83400FFE701208DF846
:100AD0002700FDE1E1E70898016801201022C4F237
:100AE00002029142019000F0A380FFE7089801689C
:100AF00001202822C4F202029142019000F0988065
:100B0000FFE70898016801204022C4F202029142E6
:100B1000019000F08D80FFE70898016801205822BD
:100B2000C4F202029142019000F08280FFE708982F
:100B3000016801207022C4F202029142019077D034
:100B4000FFE70898016801208822C4F2020291425E
:100B500001906DD0FFE7089801680120A022C4F23F
:100B600002029142019063D0FFE7089801680120DA
:100B7000B822C4F202029142019059D0FFE70898CE
:100B80000168012040F21042C4F202029142019039
:100B90004ED0FFE708980168012040F22842C4F2D5
:100BA00002029142019043D0FFE7089801680120BA
:100BB00040F24042C4F202029142019038D0FFE775
:100BC00008980168012040F25842C4F202029142A2
:100BD00001902DD0FFE708980168012040F2704293
:100BE000C4F202029142019022D0FFE70898016806
:100BF000012040F28842C4F202029142019017D0D3
:100C0000FFE708980168012040F2A042C4F2020206
:100C1000914201900CD0FFE7089800684FF64831E8
:100C2000CBF6FD710844B0FA80F040090190FFE76F
:100C30000198C00760B1FFE70898806D0790089899
:100C4000C06D00F01F013F208840079988600BE0CD
:100C50000898806D06900898C06D00F01F01012073
:100C6000884006994860FFE7089801680120102233
:100C7000C4F202029142009000F00381FFE708985D
:100C8000016801202822C4F202029142009000F083
:100C9000F880FFE70898016801204022C4F20202B0
:100CA0009142009000F0ED80FFE708980168012074
:100CB0005822C4F202029142009000F0E280FFE765
:100CC0000898016801207022C4F20202914200904B
:100CD00000F0D780FFE70898016801208822C4F25D
:100CE00002029142009000F0CC80FFE70898016872
:100CF0000120A022C4F202029142009000F0C180C3
:100D0000FFE7089801680120B822C4F2020291426C
:100D1000009000F0B680FFE708980168012040F2DB
:100D20001042C4F202029142009000F0AA80FFE754
:100D300008980168012040F22842C4F20202914260
:100D4000009000F09E80FFE708980168012040F2C3
:100D50004042C4F202029142009000F09280FFE70C
:100D600008980168012040F25842C4F20202914200
:100D7000009000F08680FFE708980168012040F2AB
:100D80007042C4F20202914200907AD0FFE70898C4
:100D90000168012040F28842C4F2020291420090B0
:100DA0006FD0FFE708980168012040F2A042C4F22A
:100DB00002029142009064D0FFE708980168012088
:100DC00040F2B842C4F202029142009059D0FFE7CB
:100DD00008980168012045F20842C5F602029142D6
:100DE00000904ED0FFE708980168012045F21C42B0
:100DF000C5F602029142009043D0FFE708980168CF
:100E0000012045F23042C5F602029142009038D0EE
:100E1000FFE708980168012045F24442C5F6020246
:100E2000914200902DD0FFE708980168012045F21B
:100E30005842C5F602029142009022D0FFE708987E
:100E40000168012045F26C42C5F602029142009011
:100E500017D0FFE708980168012045F28042C5F6E7
:100E60000202914200900CD0FFE7089800684AF611
:100E70006C31CAF2FD710844B0FA80F0400900906C
:100E8000FFE70098C007A0B1FFE70898416E806EA9
:100E900048600898C06E58B1FFE70898C16E0868AE
:100EA00020F4807008600898016F406F4860FFE789
:100EB000FFE70899012081F83500FFE70899002035
:100EC00081F83400FFE7FFE700208DF82700FFE7F7
:100ED0009DF827000AB080BD80B586B004900498C4
:100EE00020B9FFE701208DF8170046E3049890F839
:100EF0003500022807D0FFE70499802048650120CB
:100F00008DF8170039E30498016801201022C4F21B
:100F100002029142029000F0A380FFE7049801686A
:100F200001202822C4F202029142029000F098802F
:100F3000FFE70498016801204022C4F202029142B6
:100F4000029000F08D80FFE704980168012058228C
:100F5000C4F202029142029000F08280FFE70498FE
:100F6000016801207022C4F202029142029077D0FF
:100F7000FFE70498016801208822C4F2020291422E
:100F800002906DD0FFE7049801680120A022C4F20E
:100F900002029142029063D0FFE7049801680120A9
:100FA000B822C4F202029142029059D0FFE704989D
:100FB0000168012040F21042C4F202029142029004
:100FC0004ED0FFE704980168012040F22842C4F2A5
:100FD00002029142029043D0FFE704980168012089
:100FE00040F24042C4F202029142029038D0FFE740
:100FF00004980168012040F25842C4F20202914272
:1010000002902DD0FFE704980168012040F2704261
:10101000C4F202029142029022D0FFE704980168D4
:10102000012040F28842C4F202029142029017D09D
:10103000FFE704980168012040F2A042C4F20202D6
:10104000914202900CD0FFE7049800684FF64831B7
:10105000CBF6FD710844B0FA80F040090290FFE73A
:101060000298C007002800F09D80FFE70499042043
:1010700081F83500049800681021C4F2020188420A
:1010800000F08180FFE7049800682821C4F2020183
:10109000884278D0FFE7049800684021C4F202013A
:1010A000884270D0FFE7049800685821C4F202011A
:1010B000884268D0FFE7049800687021C4F20201FA
:1010C000884260D0FFE7049800688821C4F20201DA
:1010D000884258D0FFE704980068A021C4F20201BA
:1010E000884250D0FFE704980068B821C4F202019A
:1010F000884248D0FFE70498006840F21041C4F2EB
:10110000020188423FD0FFE70498006840F228417E
:10111000C4F20201884236D0FFE70498006840F22A
:101120004041C4F2020188422DD0FFE704980068D4
:1011300040F25841C4F20201884224D0FFE70498EB
:10114000006840F27041C4F2020188421BD0FFE700
:101150000498006840F28841C4F20201884212D02B
:10116000FFE70498006840F2A041C4F202018842FF
:1011700009D0FFE70498006840F2B841C4F20201C8
:10118000884207D1FFE704980168086820F0010051
:10119000086006E004980168086820F00100086013
:1011A000FFE7E5E104980168086820F00E00086098
:1011B000049800681021C4F20201884200F0818086
:1011C000FFE7049800682821C4F20201884278D021
:1011D000FFE7049800684021C4F20201884270D001
:1011E000FFE7049800685821C4F20201884268D0E1
:1011F000FFE7049800687021C4F20201884260D0C1
:10120000FFE7049800688821C4F20201884258D0A0
:10121000FFE704980068A021C4F20201884250D080
:10122000FFE704980068B821C4F20201884248D060
:10123000FFE70498006840F21041C4F202018842BE
:101240003FD0FFE70498006840F22841C4F2020151
:10125000884236D0FFE70498006840F24041C4F26B
:10126000020188422DD0FFE70498006840F25841FF
:10127000C4F20201884224D0FFE70498006840F2DB
:101280007041C4F2020188421BD0FFE70498006855
:1012900040F28841C4F20201884212D0FFE704986C
:1012A000006840F2A041C4F20201884209D0FFE781
:1012B0000498006840F2B841C4F20201884207D1A4
:1012C000FFE704980168086820F00100086006E064
:1012D00004980168086820F001000860FFE704989E
:1012E000016801201022C4F202029142019000F034
:1012F0000381FFE70498016801202822C4F202025A
:101300009142019000F0F880FFE704980168012005
:101310004022C4F202029142019000F0ED80FFE70A
:101320000498016801205822C4F2020291420190FF
:1013300000F0E280FFE70498016801207022C4F207
:1013400002029142019000F0D780FFE70498016803
:1013500001208822C4F202029142019000F0CC8068
:10136000FFE7049801680120A022C4F20202914222
:10137000019000F0C180FFE7049801680120B822C5
:10138000C4F202029142019000F0B680FFE7049897
:101390000168012040F21042C4F202029142019021
:1013A00000F0AA80FFE704980168012040F228427B
:1013B000C4F202029142019000F09E80FFE704987F
:1013C0000168012040F24042C4F2020291420190C1
:1013D00000F09280FFE704980168012040F2584233
:1013E000C4F202029142019000F08680FFE7049867
:1013F0000168012040F27042C4F202029142019061
:101400007AD0FFE704980168012040F28842C4F2D4
:101410000202914201906FD0FFE704980168012019
:1014200040F2A042C4F202029142019064D0FFE770
:1014300004980168012040F2B842C4F202029142CD
:10144000019059D0FFE704980168012045F2084255
:10145000C5F60202914201904ED0FFE70498016860
:10146000012045F21C42C5F602029142019043D090
:10147000FFE704980168012045F23042C5F60202F8
:101480009142019038D0FFE704980168012045F2AD
:101490004442C5F60202914201902DD0FFE7049824
:1014A0000168012045F25842C5F6020291420190BE
:1014B00022D0FFE704980168012045F26C42C5F68E
:1014C00002029142019017D0FFE7049801680120C1
:1014D00045F28042C5F60202914201900CD0FFE72E
:1014E000049800684AF66C31CAF2FD710844B0FAFB
:1014F00080F040090190FFE70198C00728B3FFE79B
:101500000498016E086820F4807008600498806D6B
:1015100003900498C06D00F01F01012088400399DA
:1015200048600498416E806E48600498C06E58B15F
:10153000FFE70498C16E086820F480700860049882
:10154000016F406F4860FFE7FFE70499012081F8D1
:101550003500FFE70499002081F83400FFE7049884
:10156000006D20B1FFE70498016D8847FFE7FFE7B2
:10157000FFE700208DF81700FFE79DF8170006B081
:1015800080BD00000000000081B00090009890F83D
:10159000350001B07047000081B0ADF8020001B025
:1015A000704700000000000080B582B0ADF8060072
:1015B0008820C5F600000068BDF8061008420BD070
:1015C000FFE7BDF806008821C5F600010860BDF8F8
:1015D0000600FFF7E1FFFFE702B080BD000000005A
:1015E00090B00F900E9100200D908020C5F6000065
:1015F0000A90FFE70E9800680D99C840002800F097
:10160000CF81FFE70E9800680D9A012191400840B4
:101610000C900C98002800F0BF81FFE70E984068FE
:1016200000F00300012807D0FFE70E98406800F0A3
:10163000030002282FD1FFE70F9880680B900D98C8
:101640004100032000FA01F10B9888430B900E989B
:10165000C0680D99490000FA01F10B9808430B90FE
:101660000B980F9988600F9840680B900D99012096
:1016700000FA01F10B9888430B900E984068C0F374
:1016800000100D9900FA01F10B9808430B900B988C
:101690000F994860FFE70E98406800F003000328A8
:1016A00018D0FFE70F98C0680B900D9841000320F9
:1016B00000FA01F10B9888430B900E9880680D9901
:1016C000490000FA01F10B9808430B900B980F9911
:1016D000C860FFE70E98406800F00300022826D19A
:1016E000FFE70F980D996FF0030202EA51010844D9
:1016F000006A0B900D9800F0070081000F2000FA9F
:1017000001F10B9888430B900E9800690D9901F038
:101710000701890000FA01F10B9808430B900B9820
:101720000F990D9B02EA530211440862FFE70F98DC
:1017300000680B900D984100032000FA01F10B980E
:1017400088430B900E98406800F003000D99490003
:1017500000FA01F10B9808430B900B980F99086061
:101760000E9880798007002800F01581FFE7FFE7D9
:1017700044F2F440C5F60200016841F00201016044
:10178000006800F0020009900998FFE70D9820F02A
:10179000030040F20841C5F6000140580B900D9837
:1017A00000F0030081000F2000FA01F10B9888433C
:1017B0000B900F980021C5F60201884203D1FFE784
:1017C000002008907AE00F9840F20041C5F602012F
:1017D000884203D1FFE7012007906CE00F9840F6A4
:1017E0000001C5F60201884203D1FFE702200690FE
:1017F0005EE00F9840F60041C5F60201884203D131
:10180000FFE70320059050E00F9841F20001C5F674
:101810000201884203D1FFE70420049042E00F98C0
:1018200041F20041C5F60201884203D1FFE70520DD
:10183000039034E00F9841F60001C5F6020188429A
:1018400003D1FFE70620029026E00F9841F6004101
:10185000C5F60201884203D1FFE70720019018E096
:101860000F9842F20001C5F60201884203D1FFE75A
:10187000082000900AE00F9942F20042C5F60202E9
:101880000A20914208BF09200090FFE700980190CC
:10189000FFE701980290FFE702980390FFE70398A3
:1018A0000490FFE704980590FFE705980690FFE78E
:1018B00006980790FFE707980890FFE708980D99AA
:1018C00001F00301890000FA01F10B9808430B9025
:1018D0000B980D9921F0030140F20842C5F6000271
:1018E00088504FF0B04000680B900C990B988843DB
:1018F0000B900E988079C006002805D5FFE70C995B
:101900000B9808430B90FFE70B984FF0B04108602D
:101910000420C5F6000000680B900C990B988843D2
:101920000B900E9880798006002805D5FFE70C996A
:101930000B9808430B90FFE70B980421C5F60001B4
:1019400008600A9840680B900C990B9888430B909C
:101950000E9880798007002805D5FFE70C990B9831
:1019600008430B90FFE70B980A9948600A980068B3
:101970000B900C990B9888430B900E988079C007B8
:1019800028B1FFE70C990B9808430B90FFE70B98E1
:101990000A990860FFE7FFE70D9801300D9029E6EE
:1019A00010B070470000000082B00190ADF8021046
:1019B0008DF801209DF8010028B1FFE7BDF8020075
:1019C0000199886105E0BDF8020000040199886171
:1019D000FFE702B07047000041F20000C5F600408A
:1019E0000068000C7047000040F2F810C2F200409E
:1019F000006870470000000083B0019000910198DA
:101A000090F8410020283BD1FFE7FFE7019890F8CC
:101A10004000012804D1FFE702208DF80B0033E0DD
:101A20000199012081F84000FFE7FFE70199242098
:101A300081F8410001980168086820F00100086001
:101A400001980168086820F480500860009A0198A5
:101A5000016808681043086001980168086840F050
:101A6000010008600199202081F84100FFE70199F9
:101A7000002081F84000FFE700208DF80B0003E014
:101A800002208DF80B00FFE79DF80B0003B07047B4
:101A900084B002900191029890F84100202840D132
:101AA000FFE7FFE7029890F84000012804D1FFE724
:101AB00002208DF80F0038E00299012081F84000E3
:101AC000FFE7FFE70299242081F8410002980168AE
:101AD000086820F001000860029800680068009023
:101AE000009820F4706000900199009840EA01206D
:101AF00000900098029909680860029801680868D7
:101B000040F0010008600299202081F84100FFE7C1
:101B10000299002081F84000FFE700208DF80F00B7
:101B200003E002208DF80F00FFE79DF80F0004B0DE
:101B3000704700000000000081B0009001B07047C5
:101B400082B001908DF80310ADF8002002B070470C
:101B500080B584B003900398006880690290039870
:101B60000068006801909DF80900C00790B1FFE788
:101B70009DF804100020B0EBD11F0BD0FFE70399B4
:101B8000486C40F001004864039801684FF480708D
:101B9000C861FFE79DF8090000F004010020B0EBE8
:101BA000910F12D0FFE79DF804100020B0EBD11F79
:101BB0000BD0FFE70399486C40F008004864039895
:101BC00001684FF48060C861FFE79DF8090000F0EC
:101BD00002010020B0EB510F12D0FFE79DF8041076
:101BE0000020B0EBD11F0BD0FFE70399486C40F009
:101BF00002004864039801684FF40070C861FFE771
:101C00000398406C00909DF8000010F00B0F05D079
:101C1000FFE70398009904F0BFF9FFE704B080BD27
:101C200081B0009001B0704780B582B000900098FC
:101C300020B9FFE701208DF8070073E0009890F8C5
:101C4000410040B9FFE70099002081F8400000986A
:101C500000F072F8FFE70099242081F84100009815
:101C60000168086820F00100086000980168406879
:101C700020F07060086100980168886820F40040D6
:101C800088600098C068012807D1FFE700980168C4
:101C9000806840F40040886006E000980168806831
:101CA00040F404408860FFE70098C068022806D12D
:101CB000FFE7009801684FF400604860FFE7009874
:101CC0000168486848F20002C0F2002210434860F0
:101CD00000980168C86820F40040C860009A116844
:101CE000106953699269184340EA0220C860009A5B
:101CF0001168D069126A104308600098016808688A
:101D000040F001000860009900204864009A2021FA
:101D100082F8411000990863009981F842008DF81B
:101D20000700FFE79DF8070002B080BD000000003B
:101D300081B0009001B0704780B5BCB03B900020EE
:101D40003A90399038903790369006A8C021FEF727
:101D50008BFB3B98006845F20041C4F200018842C9
:101D600045D1FFE70020079008210691279006A89B
:101D700000F0FEFC18B1FFE7FEF7EAFBFFE7FFE724
:101D800044F2E040C5F60200016841F00201016042
:101D9000006800F0020005900598FFE7C02036902B
:101DA0001220379000203890399004203A9040F269
:101DB0000040C5F6020036A9FFF712FCFFE744F227
:101DC000E840C5F60200016841F4001101600068B6
:101DD00000F4001004900498FFE7202001900221F5
:101DE000002200F08DF9019800F07EF94EE03B985A
:101DF000006845F60001C4F20001884245D1FFE7C2
:101E00000020079008210691279006A800F0B0FC5A
:101E100018B1FFE7FEF79CFBFFE7FFE744F2E04065
:101E2000C5F60200016841F020010160006800F081
:101E3000200003900398FFE703203690122037908C
:101E400000203890399004203A9041F20040C5F6C5
:101E5000020036A9FFF7C4FBFFE744F2E840C5F6ED
:101E60000200016841F480010160006800F4800014
:101E700002900298FFE7222000900221002200F049
:101E80003FF9009800F030F9FFE7FFE73CB080BD74
:101E900081B0009001B0704781B0009001B07047F0
:101EA00040F20800C2F20040027840F2F811C2F29B
:101EB00000410868104408607047000000000000FE
:101EC00080B582B0032000F033F901F041FF44F205
:101ED0001842C5F602021168C1F3032348F6361111
:101EE000C0F60001CB5C03F01F03D84000900098BF
:101EF000126802F00F02895C01F01F01C84040F235
:101F00000401C2F200410860009840F20001C2F2F0
:101F1000004108600F2000F013F820B1FFE7012016
:101F20008DF8070005E000F0CBF800208DF80700E1
:101F3000FFE79DF8070002B080BD00000000000030
:101F400080B582B0009040F20800C2F200400078F4
:101F500020B9FFE701208DF8070030E040F20000D3
:101F6000C2F20040006840F20801C2F200410A7863
:101F70004FF47A71B1FBF2F1B0FBF1F002F01CFE0C
:101F800020B1FFE701208DF8070018E000980F2826
:101F90000DD8FFE700994FF0FF30002200F0B0F8B5
:101FA000009840F20C01C2F20041086003E00120F9
:101FB0008DF8070003E000208DF80700FFE79DF88B
:101FC000070002B080BD000080B582B0019001988A
:101FD00040784EF69851CEF20001086001980078E2
:101FE00098B3FFE7019840684EF69C51CEF200018D
:101FF0000860DDF804C0CDF800C09CF80C000007B4
:102000009CF80B1040EA01609CF800109CF8082036
:102010009CF809309CF80AE040EACE409CF80DE0BC
:1020200040EA8E409CF80EE040EA4E409CF80FC01B
:1020300040EA0C4040EA032040EA420008434EF6E2
:10204000A051CEF2000108600BE04EF69C51CEF29A
:102050000001002008604EF6A051CEF20001086099
:10206000FFE702B080BD0000BFF35F8F4EF6245142
:10207000CEF20001086820F4803008604EF69451DA
:10208000CEF2000100200860704700000000000050
:1020900081B00090009840F001004EF69451CEF2CD
:1020A000000108604EF62451CEF20001086840F4A9
:1020B00080300860BFF34F8FBFF36F8F01B0704760
:1020C00081B0FFE744F2F440C5F60200016841F038
:1020D00002010160006800F0020000900098FFE734
:1020E00001B070470000000080B582B0ADF8060076
:1020F000BDF9060006F098FB02B080BD00000000AC
:1021000080B586B0ADF816000491039206F0A4FBEA
:102110000290BDF91600019002980499039A04F008
:1021200053FF0146019806F09FFB06B080BD0000FA
:1021300080B582B00190019806F0BAFB02B080BD74
:1021400080B584B0029044F60C00C5F60200006829
:1021500000F004010020B0EB910F13D1FFE744F62B
:102160000C00C5F60200006800F0070002998842E2
:1021700004D0FFE701208DF80F002EE000208DF83D
:102180000F002AE044F60C01C5F60201086820F0B1
:102190000700029A10430860FFF726FC0190FFE752
:1021A00044F60400C5F60200006800F40051002067
:1021B000B0EB513F0DD1FFE7FFF716FC0199401A34
:1021C000B0F57A7F04D9FFE701208DF80F0004E015
:1021D000E6E700208DF80F00FFE79DF80F0004B040
:1021E00080BD00000000000080B501F05DFD44F2FC
:1021F0002041C5F602010968C1F3021248F6361102
:10220000C0F60001895C01F01F01C84080BD0000DC
:1022100088B0079044F22840C5F60200016801F03A
:10222000030106910068C0F30530059044F22C408C
:10223000C5F602000068C0F300100490049844F250
:102240003C41C5F60201096889B2C908484300EE5D
:10225000100AB8EE400A8DED020A0598002800F039
:102260001B81FFE70698009048B1FFE7009801281E
:1022700069D0FFE70098022800F08980ABE044F2C3
:102280000040C5F60200006800F020010020B0EB1D
:10229000511F33D0FFE744F20040C5F6020000684A
:1022A000C0F3C10149F20000C0F2D030C840039031
:1022B0009DED030AB8EE400A9DED051AB8EE411AED
:1022C00080EE010A44F23840C5F6020000686FF360
:1022D0005F2001EE100AB8EE411A9DED022A9FED33
:1022E000743A82EE032A31EE021AB7EE002A31EE7A
:1022F000021A20EE010A8DED010A23E09DED050A88
:10230000B8EE401A9FED6C0A80EE010A44F23840A4
:10231000C5F6020000686FF35F2001EE100AB8EE08
:10232000411A9DED022A9FED623A82EE032A31EEB8
:10233000021AB7EE002A31EE021A20EE010A8DEDE4
:10234000010AFFE76BE09DED050AB8EE401A9FED2C
:10235000590A80EE010A44F23840C5F602000068CE
:102360006FF35F2001EE100AB8EE411A9DED022ACC
:102370009FED4F3A82EE032A31EE021AB7EE002AA1
:1023800031EE021A20EE010A8DED010A47E09DEDC3
:10239000050AB8EE401A9FED450A80EE010A44F2A4
:1023A0003840C5F6020000686FF35F2001EE100AA6
:1023B000B8EE411A9DED022A9FED3D3A82EE032AC6
:1023C00031EE021AB7EE002A31EE021A20EE010AAF
:1023D0008DED010A23E09DED050AB8EE401A9FED50
:1023E000350A80EE010A44F23840C5F60200006862
:1023F0006FF35F2001EE100AB8EE411A9DED022A3C
:102400009FED2B3A82EE032A31EE021AB7EE002A34
:1024100031EE021A20EE010A8DED010AFFE79DED73
:10242000010A44F23840C5F60200016889B2490A3F
:1024300001EE101AB8EE411AB7EE002A31EE021A78
:1024400080EE010A0799BCEEC00A81ED000A9DEDFD
:10245000010A0168C1F3064101EE101AB8EE411AF3
:1024600031EE021A80EE010A0799BCEEC00A81ED36
:10247000010A9DED010A0068C0F3066001EE100A32
:10248000B8EE411A31EE021A80EE010A0798BCEE4E
:10249000C00A80ED020A07E007990020086007994A
:1024A000486007998860FFE708B0704720BCBE4BC2
:1024B000000000460024744A0024744C0000000010
:1024C00088B0079044F22840C5F60200016801F088
:1024D000030106910068C0F30550059044F22C40BA
:1024E000C5F602000068C0F300200490049844F28E
:1024F0004441C5F60201096889B2C908484300EEA3
:10250000100AB8EE400A8DED020A0598002800F086
:102510001B81FFE70698009048B1FFE7009801286B
:1025200069D0FFE70098022800F08980ABE044F210
:102530000040C5F60200006800F020010020B0EB6A
:10254000511F33D0FFE744F20040C5F60200006897
:10255000C0F3C10149F20000C0F2D030C84003907E
:102560009DED030AB8EE400A9DED051AB8EE411A3A
:1025700080EE010A44F24040C5F6020000686FF3A5
:102580005F2001EE100AB8EE411A9DED022A9FED80
:10259000743A82EE032A31EE021AB7EE002A31EEC7
:1025A000021A20EE010A8DED010A23E09DED050AD5
:1025B000B8EE401A9FED6C0A80EE010A44F24040EA
:1025C000C5F6020000686FF35F2001EE100AB8EE56
:1025D000411A9DED022A9FED623A82EE032A31EE06
:1025E000021AB7EE002A31EE021A20EE010A8DED32
:1025F000010AFFE76BE09DED050AB8EE401A9FED7A
:10260000590A80EE010A44F24040C5F60200006813
:102610006FF35F2001EE100AB8EE411A9DED022A19
:102620009FED4F3A82EE032A31EE021AB7EE002AEE
:1026300031EE021A20EE010A8DED010A47E09DED10
:10264000050AB8EE401A9FED450A80EE010A44F2F1
:102650004040C5F6020000686FF35F2001EE100AEB
:10266000B8EE411A9DED022A9FED3D3A82EE032A13
:1026700031EE021AB7EE002A31EE021A20EE010AFC
:102680008DED010A23E09DED050AB8EE401A9FED9D
:10269000350A80EE010A44F24040C5F602000068A7
:1026A0006FF35F2001EE100AB8EE411A9DED022A89
:1026B0009FED2B3A82EE032A31EE021AB7EE002A82
:1026C00031EE021A20EE010A8DED010AFFE79DEDC1
:1026D000010A44F24040C5F60200016889B2490A85
:1026E00001EE101AB8EE411AB7EE002A31EE021AC6
:1026F00080EE010A0799BCEEC00A81ED000A9DED4B
:10270000010A0168C1F3064101EE101AB8EE411A40
:1027100031EE021A80EE010A0799BCEEC00A81ED83
:10272000010A9DED010A0068C0F3066001EE100A7F
:10273000B8EE411A31EE021A80EE010A0798BCEE9B
:10274000C00A80ED020A07E0079900200860079997
:10275000486007998860FFE708B0704720BCBE4B0F
:10276000000000460024744A0024744C000000005D
:1027700080B59AB0189000208DF857008DF856005B
:102780001898C0780007002848D5FFE71898806E91
:10279000149078B1FFE71498B0F5801F13D0FFE7CD
:1027A0001498B0F5001F16D0FFE71498B0F5401F3D
:1027B00019D019E044F22C41C5F60201086840F432
:1027C0000030086014E018980830022104F038FC4A
:1027D0008DF857000CE018982830022104F018FDFD
:1027E0008DF8570004E003E001208DF85700FFE763
:1027F0009DF8570060B9FFE744F25041C5F6020169
:10280000086820F44010189A926E1043086004E0A3
:102810009DF857008DF85600FFE7FFE718984078BD
:10282000C007002840D0FFE71898806D1390042857
:1028300020D81399DFE801F0030C141C1D0044F2AA
:102840002C41C5F60201086840F40030086015E02C
:1028500018980830002104F0F3FB8DF857000DE0C4
:1028600018982830002104F0D3FC8DF8570005E0BB
:1028700004E003E001208DF85700FFE79DF85700C2
:1028800060B9FFE744F25041C5F60201086820F044
:102890000700189A926D1043086004E09DF85700F5
:1028A0008DF85600FFE7FFE718984078800700286A
:1028B0004BD5FFE71898C06D129088B1FFE71298CA
:1028C000402816D0FFE7129880281AD0FFE7129808
:1028D000C0281ED0FFE71298B0F5807F1AD01AE00A
:1028E00044F22C41C5F60201086840F4003008604B
:1028F00015E018980830002104F0A2FB8DF857006D
:102900000DE018982830002104F082FC8DF8570063
:1029100005E004E003E001208DF85700FFE79DF893
:10292000570060B9FFE744F25041C5F6020108685C
:1029300020F4E070189AD26D1043086004E09DF80E
:1029400057008DF85600FFE7FFE7189840784007DA
:10295000002850D5FFE71898D0F8A8001190A0B132
:10296000FFE71198B0F5001F18D0FFE71198B0F5F8
:10297000800F1BD0FFE71198B0F5C00F1ED0FFE706
:102980001198B0F5000F1AD01AE044F22C41C5F6A8
:102990000201086840F40030086015E0189808301B
:1029A000002104F04DFB8DF857000DE018982830F9
:1029B000002104F02DFC8DF8570005E004E003E051
:1029C00001208DF85700FFE79DF8570068B9FFE731
:1029D00044F25841C5F60201086820F46000189AD4
:1029E000D2F8A8201043086004E09DF857008DF845
:1029F0005600FFE7FFE7189840780007002850D5F9
:102A0000FFE71898D0F8AC001090A0B1FFE710983D
:102A1000B0F1807F18D0FFE71098B0F1007F1BD095
:102A2000FFE71098B0F1407F1ED0FFE71098B0F19B
:102A3000806F1AD01AE044F22C41C5F602010868F2
:102A400040F40030086015E018980830002104F0C8
:102A5000F7FA8DF857000DE018982830002104F09F
:102A6000D7FB8DF8570005E004E003E001208DF866
:102A70005700FFE79DF8570068B9FFE744F2584157
:102A8000C5F60201086820F0E060189AD2F8AC2080
:102A90001043086004E09DF857008DF85600FFE7EA
:102AA000FFE71898C078800700283ED5FFE7189800
:102AB000C06C0F90F0B1FFE70F98102808D0FFE727
:102AC0000F9820280DD0FFE70F98302811D012E082
:102AD00044F22C41C5F60201086840F40030086059
:102AE0000DE018980830022104F0AAFA8DF857007A
:102AF00005E004E003E001208DF85700FFE79DF8B2
:102B0000570060B9FFE744F24C41C5F6020108687E
:102B100020F03000189AD26C1043086004E09DF851
:102B200057008DF85600FFE7FFE718984078C00679
:102B300000284ED5FFE71898006E0E90A0B1FFE771
:102B40000E98B0F5805F18D0FFE70E98B0F5005FE3
:102B50001BD0FFE70E98B0F5405F1ED0FFE70E9840
:102B6000B0F5804F1AD01AE044F22C41C5F60201AC
:102B7000086840F40030086015E01898083000211B
:102B800004F05EFA8DF857000DE018982830002107
:102B900004F03EFB8DF8570005E004E003E001205F
:102BA0008DF85700FFE79DF8570060B9FFE744F242
:102BB0005041C5F60201086820F4E040189A126EF0
:102BC0001043086004E09DF857008DF85600FFE7B9
:102BD000FFE718984078800600284CD5FFE7189842
:102BE000406E0D90C8B1FFE70D98B0F5803F15D04D
:102BF000FFE70D98B0F5003F18D0FFE70D98B0F54E
:102C0000403F1BD0FFE70D98B0F5802F17D0FFE7AE
:102C10000D98B0F5A02F13D013E016E018980830E7
:102C2000012104F00DFA8DF857000EE018982830B5
:102C3000012104F0EDFA8DF8570006E005E004E00C
:102C400003E001208DF85700FFE79DF8570060B9B9
:102C5000FFE744F25041C5F60201086820F4E02085
:102C6000189A526E1043086004E09DF857008DF8E2
:102C70005600FFE7FFE718984078400600284ED539
:102C8000FFE71898D0F8B0000C90C8B1FFE70C9897
:102C9000B0F1805F15D0FFE70C98B0F1005F18D05D
:102CA000FFE70C98B0F1405F1BD0FFE70C98B0F144
:102CB000804F17D0FFE70C98B0F1A04F13D013E06E
:102CC00016E018980830012104F0BAF98DF8570081
:102CD0000EE018982830012104F09AFA8DF8570078
:102CE00006E005E004E003E001208DF85700FFE76F
:102CF0009DF8570068B9FFE744F25841C5F6020154
:102D0000086820F0E040189AD2F8B020104308601C
:102D100004E09DF857008DF85600FFE7FFE718988C
:102D20004078000600283BD5FFE71898006F0B900D
:102D3000D8B1FFE70B98B0F1805F05D0FFE70B98A3
:102D4000B0F1005F09D011E044F22C41C5F6020158
:102D5000086840F4003008600CE018980830012141
:102D600004F06EF98DF8570004E003E001208DF8BF
:102D70005700FFE79DF8570060B9FFE744F2504164
:102D8000C5F60201086820F04050189A126F1043EF
:102D9000086004E09DF857008DF85600FFE7FFE754
:102DA0001898C078C007002837D0FFE71898806CC3
:102DB0000A90032817D80A99DFE801F014020B13D0
:102DC00044F22C41C5F60201086840F40030086066
:102DD0000DE018980830022104F032F98DF8570000
:102DE00005E004E003E001208DF85700FFE79DF8BF
:102DF000570060B9FFE744F24C41C5F6020108688C
:102E000020F00300189A926C1043086004E09DF8CB
:102E100057008DF85600FFE7FFE7189880784006C6
:102E2000002840F1B480FFE744F60001C5F6020136
:102E3000086840F480700860FEF7D6FD1690FFE742
:102E400044F60000C5F602000068C00500280CD456
:102E5000FFE7FEF7C9FD1699401A652804D3FFE77E
:102E600003208DF8570000E0EAE79DF8570000289E
:102E700040F08780FFE744F27040C5F6020000682A
:102E800000F440701899D1F8B41001F440718842F0
:102E900013D0FFE744F27041C5F60201086820F440
:102EA00040701790086840F480300860086820F48B
:102EB0008030086017980860FFE71898D0F8B400D1
:102EC000B0F5807F1FD1FFE7FEF78EFD1690FFE77C
:102ED00044F27040C5F60200006800F002010020D4
:102EE000B0EB510F0ED1FFE7FEF77EFD1699401AA9
:102EF00041F28931884204D3FFE703208DF857005F
:102F000000E0E5E7FFE79DF85700A0BBFFE7FFE71C
:102F10001898D0F8B40000F44070B0F5407F13D199
:102F2000FFE744F21041C5F60201086820F47C5026
:102F3000189AD2F8B4204FF6F043C0F6FF731A4047
:102F400040EA1210086008E044F21041C5F60201A0
:102F5000086820F47C500860FFE71898D0F8B42087
:102F60006FF31F3244F27041C5F602010868104346
:102F70000860FFE704E09DF857008DF85600FFE772
:102F800004E09DF857008DF85600FFE7FFE718981A
:102F90000068C007002800F04C80FFE71898C06F59
:102FA000099028282BD80999DFE801F0152929294B
:102FB0002929292916292929292929291E2929299F
:102FC0002929292926292929292929292729292976
:102FD00029292929280016E018980830012104F031
:102FE0002FF88DF857000EE018982830012104F0D2
:102FF0000FF98DF8570006E005E004E003E001203A
:103000008DF85700FFE79DF8570060B9FFE744F2DD
:103010005441C5F60201086820F03800189AD26FB2
:103020001043086004E09DF857008DF85600FFE754
:10303000FFE7189800788007002839D5FFE718982F
:10304000806F0890052819D80899DFE801F003047B
:103050000C14151616E018980830012103F0F0FF43
:103060008DF857000EE018982830012104F0D0F8B0
:103070008DF8570006E005E004E003E001208DF83C
:103080005700FFE79DF8570060B9FFE744F254414D
:10309000C5F60201086820F00700189A926F1043E5
:1030A000086004E09DF857008DF85600FFE7FFE741
:1030B00018980078400700283BD5FFE71898D0F80B
:1030C00094000790052819D80799DFE801F0030458
:1030D0000C14151616E018980830012103F0B0FF03
:1030E0008DF857000EE018982830012104F090F870
:1030F0008DF8570006E005E004E003E001208DF8BC
:103100005700FFE79DF8570068B9FFE744F25841C0
:10311000C5F60201086820F00700189AD2F894203A
:103120001043086004E09DF857008DF85600FFE753
:10313000FFE718980078800600284ED5FFE718981A
:10314000D0F890000690C8B1FFE70698B0F1805F14
:1031500015D0FFE70698B0F1005F18D0FFE706989A
:10316000B0F1405F1BD0FFE70698B0F1804F17D059
:10317000FFE70698B0F1A04F13D013E016E01898BF
:103180000830002103F05CFF8DF857000EE018981E
:103190002830022104F03CF88DF8570006E005E0E5
:1031A00004E003E001208DF85700FFE79DF8570089
:1031B00068B9FFE744F25441C5F60201086820F0FF
:1031C000E040189AD2F890201043086004E09DF87F
:1031D00057008DF85600FFE7FFE718980078400683
:1031E00000284ED5FFE71898D0F89C000590C8B18C
:1031F000FFE70598B0F5806F15D0FFE70598B0F5AB
:10320000006F18D0FFE70598B0F5406F1BD0FFE7BF
:103210000598B0F5805F17D0FFE70598B0F5A05F7F
:1032200013D013E016E018980830002103F008FFCF
:103230008DF857000EE018982830022103F0E8FFBF
:103240008DF8570006E005E004E003E001208DF86A
:103250005700FFE79DF8570068B9FFE744F258416F
:10326000C5F60201086820F4E050189AD2F89C20B4
:103270001043086004E09DF857008DF85600FFE702
:10328000FFE718980078000600284ED5FFE7189849
:10329000D0F8A0000490C8B1FFE70498B0F5005F33
:1032A00015D0FFE70498B0F5804F18D0FFE70498D9
:1032B000B0F5C04F1BD0FFE70498B0F5004F17D012
:1032C000FFE70498B0F5204F13D013E016E01898EC
:1032D0000830002103F0B4FE8DF857000EE0189876
:1032E0002830022103F094FF8DF8570006E005E036
:1032F00004E003E001208DF85700FFE79DF8570038
:1033000068B9FFE744F25841C5F60201086820F4A5
:103310006040189AD2F8A0201043086004E09DF89D
:1033200057008DF85600FFE7FFE718980078000770
:10333000002820D5FFE71898D0F88400B0F5805F0A
:103340000CD1FFE718982830022103F061FF20B16B
:10335000FFE701208DF85600FFE7FFE744F25441F4
:10336000C5F60201086820F44050189AD2F884206B
:1033700010430860FFE718980078C006002820D5A1
:10338000FFE71898D0F89800B0F5807F0CD1FFE7E0
:1033900018982830022103F03BFF20B1FFE70120FD
:1033A0008DF85600FFE7FFE744F25841C5F60201E9
:1033B000086820F44070189AD2F8982010430860EA
:1033C000FFE718988078000700283CD5FFE7189899
:1033D000D0F8A400039050B1FFE70398B0F5803F08
:1033E0000DD0FFE70398B0F5003F10D010E018981B
:1033F0000830002103F024FE8DF857000CE01898E7
:103400002830022103F004FF8DF8570004E003E0A8
:1034100001208DF85700FFE79DF8570068B9FFE7D6
:1034200044F25841C5F60201086820F44030189A69
:10343000D2F8A4201043086004E09DF857008DF8EE
:103440005600FFE7FFE718988078400700283FD52F
:10345000FFE71898D0F888000290B0F5801F0AD0D6
:10346000FFE70298B0F5001F0ED0FFE70298B0F515
:10347000401F11D011E044F22C41C5F6020108684A
:1034800040F4003008600CE018982830012103F067
:10349000BFFE8DF8570004E003E001208DF85700CF
:1034A000FFE79DF8570068B9FFE744F25441C5F6BD
:1034B0000201086820F44010189AD2F888201043BE
:1034C000086004E09DF857008DF85600FFE7FFE71D
:1034D00018988078C007A8B3FFE71898006D01908E
:1034E00028B1FFE70198B0F5803F09D010E044F221
:1034F0002C41C5F60201086840F4003008600BE07A
:1035000018980830022103F09BFD8DF8570003E066
:1035100001208DF85700FFE79DF8570060B9FFE7DD
:1035200044F24C41C5F60201086820F48030189A34
:10353000126D1043086004E09DF857008DF85600A6
:10354000FFE7FFE71898C078800600280CD5FFE752
:1035500018982830022103F05BFE20B1FFE701201C
:103560008DF85600FFE7FFE718988078800700285D
:103570003CD5FFE71898D0F880000090D0B1FFE765
:103580000098B0F5807F0AD0FFE70098B0F5007F83
:103590000ED0FFE70098B0F5407F0AD00BE044F270
:1035A0002C41C5F60201086840F40030086006E0CE
:1035B00005E004E003E001208DF85700FFE79DF8E7
:1035C000570068B9FFE744F25441C5F602010868A4
:1035D00020F44070189AD2F880201043086004E06C
:1035E0009DF857008DF85600FFE7FFE718988078A0
:1035F000C00600280CD5FFE744F25041C5F6020191
:10360000086820F00040189A526F10430860FFE7E6
:103610001898C078C00600280DD5FFE744F2104185
:10362000C5F60201086820F48040189AD2F8B82044
:1036300010430860FFE718988078800600280CD5B2
:10364000FFE744F25041C5F60201086820F080709F
:10365000189AD26E10430860FFE71898C0784006A9
:10366000002811D5FFE7FFE744F21041C5F602013B
:10367000086820F4004008601898D0F8BC2008685A
:1036800010430860FFE7FFE71898C078000600289D
:103690000CD5FFE744F24C41C5F60201086820F062
:1036A0004050189A526D10430860FFE718988078D0
:1036B000000600280DD5FFE744F25441C5F602018B
:1036C000086820F44000189AD2F88C201043086053
:1036D000FFE718980079C00790B1FFE71898083005
:1036E000002103F0ADFC8DF857009DF8570008B994
:1036F000FFE704E09DF857008DF85600FFE7FFE76D
:10370000189800798007002812D5FFE7189808302C
:10371000012103F095FC8DF857009DF8570008B97A
:10372000FFE704E09DF857008DF85600FFE7FFE73C
:10373000189800794007002812D5FFE7189808303C
:10374000022103F07DFC8DF857009DF8570008B961
:10375000FFE704E09DF857008DF85600FFE7FFE70C
:10376000189800790007002812D5FFE7189828302C
:10377000002103F04DFD8DF857009DF8570008B962
:10378000FFE704E09DF857008DF85600FFE7FFE7DC
:1037900018980079C006002812D5FFE7189828303D
:1037A000012103F035FD8DF857009DF8570008B949
:1037B000FFE704E09DF857008DF85600FFE7FFE7AC
:1037C000189800798006002812D5FFE7189828304D
:1037D000022103F01DFD8DF857009DF8570008B930
:1037E000FFE704E09DF857008DF85600FFE7FFE77C
:1037F0009DF8560020B9FFE700208DF8670003E030
:1038000001208DF86700FFE79DF867001AB080BDC2
:1038100080B586B004900391049820B9FFE7012099
:103820008DF817003CE2039842F20001C5F2002136
:10383000096801F00F01884216D9FFE742F2000043
:10384000C5F20020016821F00F01039A11430160C5
:10385000006800F00F000399884204D0FFE70120C0
:103860008DF817001CE2FFE7049800784007002855
:1038700019D5FFE70498006944F21841C5F6020122
:10388000096801F0700188420CD9FFE744F2184141
:10389000C5F60201086820F07000049A126910430E
:1038A0000860FFE7FFE7049800780007002819D5B3
:1038B000FFE70498406944F21C41C5F6020109681B
:1038C00001F0700188420CD9FFE744F21C41C5F6B3
:1038D0000201086820F07000049A526910430860E1
:1038E000FFE7FFE704980078C006002819D5FFE736
:1038F0000498806944F21C41C5F60201096801F48C
:10390000E06188420CD9FFE744F21C41C5F6020190
:10391000086820F4E060049A926910430860FFE7A9
:10392000FFE7049800788006002819D5FFE704987F
:10393000C06944F22041C5F60201096801F0700136
:1039400088420CD9FFE744F22041C5F6020108681D
:1039500020F07000049AD26910430860FFE7FFE787
:10396000049800788007002819D5FFE70498C068FC
:1039700044F21841C5F60201096801F00F018842BE
:103980000CD9FFE744F21841C5F60201086820F09F
:103990000F00049AD26810430860FFE7FFE704981D
:1039A0000078C007002800F08C80FFE744F218413F
:1039B000C5F60201086820F47060049A926810430A
:1039C000086004984068022811D1FFE744F20040E3
:1039D000C5F60200006800F400310020B0EB514F42
:1039E00004D1FFE701208DF8170059E13EE004986B
:1039F0004068032811D1FFE744F20040C5F60200F9
:103A0000006800F000710020B0EB516F04D1FFE7B7
:103A100001208DF8170043E127E004984068012851
:103A200011D1FFE744F20040C5F60200006800F43F
:103A300080710020B0EB112F04D1FFE701208DF839
:103A400017002DE110E044F20040C5F602000068C6
:103A500000F004010020B0EB910F04D1FFE701203A
:103A60008DF817001CE1FFE7FFE7FFE744F2104184
:103A7000C5F60201086820F00700049A5268104356
:103A80000860FDF7B1FF0190FFE744F21040C5F672
:103A90000200006800F0380004994968B0EBC10FDB
:103AA0000ED0FFE7FDF7A0FF0199401A41F28931DE
:103AB000884204D3FFE703208DF81700F0E0E4E725
:103AC000FFE7049800788007002819D5FFE70498DD
:103AD000C06844F21841C5F60201096801F00F01FF
:103AE00088420CD2FFE744F21841C5F6020108688B
:103AF00020F00F00049AD26810430860FFE7FFE748
:103B0000039842F20001C5F20021096801F00F019B
:103B1000884216D2FFE742F20000C5F20020016899
:103B200021F00F01039A11430160006800F00F00BB
:103B30000399884204D0FFE701208DF81700AFE019
:103B4000FFE7049800784007002819D5FFE704989C
:103B5000006944F21841C5F60201096801F07001DC
:103B600088420CD2FFE744F21841C5F6020108680A
:103B700020F07000049A126910430860FFE7FFE725
:103B8000049800780007002819D5FFE704984069D9
:103B900044F21C41C5F60201096801F07001884237
:103BA0000CD2FFE744F21C41C5F60201086820F080
:103BB0007000049A526910430860FFE7FFE7049819
:103BC0000078C006002819D5FFE70498806944F200
:103BD0001C41C5F60201096801F4E06188420CD27B
:103BE000FFE744F21C41C5F60201086820F4E060DA
:103BF000049A926910430860FFE7FFE70498007891
:103C00008006002819D5FFE70498C06944F22041D6
:103C1000C5F60201096801F0700188420CD2FFE785
:103C200044F22041C5F60201086820F07000049AB1
:103C3000D26910430860FFE7FFE700F089F844F21B
:103C40001842C5F602021168C1F3032348F6361183
:103C5000C0F60001CB5C03F01F03D8400090009831
:103C6000126802F00F02895C01F01F01C84040F2A7
:103C70000401C2F200410860009840F20001C2F263
:103C80000041086040F20C00C2F200400068FEF7FC
:103C900057F98DF80B009DF80B008DF81700FFE722
:103CA0009DF8170006B080BD80B582B000F050F8D6
:103CB00044F21842C5F602021168C1F3032348F624
:103CC0003611C0F60001CB5C03F01F03D840019011
:103CD0000198126802F00F02895C01F01F0120FABE
:103CE00001F140F20400C2F200400160019940F28B
:103CF0000002C2F200421160006802B080BD000004
:103D000080B5FFF7D1FF44F21C41C5F602010968F6
:103D1000C1F3021248F63611C0F60001895C01F0C9
:103D20001F01C84080BD000080B5FFF7BDFF44F211
:103D30001C41C5F602010968C1F3022248F636119A
:103D4000C0F60001895C01F01F01C84080BD000081
:103D50008AB044F21040C5F60200006800F0380056
:103D600001460191182800F269810199DFE811F0FC
:103D70001900660166016601660166016601660159
:103D80003A00660166016601660166016601660128
:103D90004000660166016601660166016601660112
:103DA000460044F20040C5F60200006800F0200121
:103DB0000020B0EB511F0ED0FFE744F20040C5F6E3
:103DC00002000068C0F3C10149F20000C0F2D03027
:103DD000C840029005E049F20000C0F2D0300290E5
:103DE000FFE731E140F60010C0F23D0002902BE108
:103DF00047F64000C0F27D10029025E144F22840D1
:103E0000C5F60200016801F0030108910068C0F3E3
:103E10000510079044F22C40C5F60200006800F03F
:103E200001000690069844F23441C5F60201096883
:103E300089B2C908484300EE100AB8EE400A8DED79
:103E4000040A0798002800F0F580FFE70898009022
:103E500048B1FFE70098012869D0FFE700980228E1
:103E600000F08980ABE044F20040C5F60200006833
:103E700000F020010020B0EB511F33D0FFE744F2E7
:103E80000040C5F602000068C0F3C10149F200001D
:103E9000C0F2D030C84005909DED050AB8EE400A4A
:103EA0009DED071AB8EE411A80EE010A44F2304047
:103EB000C5F6020000686FF35F2001EE100AB8EE4D
:103EC000411A9DED042A9FED633A82EE032A31EEFA
:103ED000021AB7EE002A31EE021A20EE010A8DED29
:103EE000030A23E09DED070AB8EE401A9FED5B0A36
:103EF00080EE010A44F23040C5F6020000686FF31C
:103F00005F2001EE100AB8EE411A9DED042A9FEDE4
:103F1000513A82EE032A31EE021AB7EE002A31EE50
:103F2000021A20EE010A8DED030AFFE76BE09DED1A
:103F3000070AB8EE401A9FED480A80EE010A44F2E3
:103F40003040C5F6020000686FF35F2001EE100AF2
:103F5000B8EE411A9DED042A9FED3E3A82EE032A07
:103F600031EE021AB7EE002A31EE021A20EE010AF3
:103F70008DED030A47E09DED070AB8EE401A9FED6C
:103F8000340A80EE010A44F23040C5F602000068AF
:103F90006FF35F2001EE100AB8EE411A9DED042A7E
:103FA0009FED2C3A82EE032A31EE021AB7EE002A78
:103FB00031EE021A20EE010A8DED030A23E09DED99
:103FC000070AB8EE401A9FED240A80EE010A44F277
:103FD0003040C5F6020000686FF35F2001EE100A62
:103FE000B8EE411A9DED042A9FED1A3A82EE032A9B
:103FF00031EE021AB7EE002A31EE021A20EE010A63
:104000008DED030AFFE744F23040C5F60200006878
:1040100081B2012000EB512009909DED030A9DED36
:10402000091AB8EE411A80EE010ABCEEC00A8DED05
:10403000020A02E000200290FFE705E040F60010CF
:10404000C0F23D000290FFE702980AB0704700BF3F
:1040500020BCBE4B000000460024744A0024744C6F
:1040600080B58CB00A900A9828B9FFE701208DF836
:104070002F0000F09DBD0A980078C007002800F0CE
:10408000B980FFE744F21040C5F60200006800F076
:104090003800069044F22840C5F6020000680590FA
:1040A000069810280AD0FFE7069818281CD1FFE7C9
:1040B000059800F00300022816D1FFE744F2004003
:1040C000C5F60200006800F400310020B0EB514F4B
:1040D00009D0FFE70A98406828B9FFE701208DF86A
:1040E0002F0000F065BD84E0FFE70A984068B0F556
:1040F000803F09D1FFE744F20041C5F6020108689C
:1041000040F48030086032E00A98406868B9FFE700
:1041100044F20041C5F60201086820F480300860CE
:10412000086820F48020086020E00A984068B0F514
:10413000A02F0DD1FFE744F20041C5F60201086847
:1041400040F480200860086840F4803008600CE08B
:1041500044F20041C5F60201086820F4803008608E
:10416000086820F480200860FFE7FFE7FFE7FFE72B
:104170000A984068F0B1FFE7FDF736FC0990FFE7C9
:1041800044F20040C5F60200006800F4003100204F
:10419000B0EB514F0DD1FFE7FDF726FC0999401A0E
:1041A000652805D3FFE703208DF82F0000F000BD40
:1041B000E6E71DE0FDF718FC0990FFE744F2004038
:1041C000C5F60200006800F400310020B0EB514F4A
:1041D0000DD0FFE7FDF708FC0999401A652805D3C3
:1041E000FFE703208DF82F0000F0E2BCE6E7FFE7D1
:1041F000FFE7FFE70A9800788007002840F1168162
:10420000FFE744F21040C5F60200006800F03800F5
:10421000049044F22840C5F6020000680390049818
:1042200050B1FFE70498182878D1FFE79DF80C00FB
:104230008007002872D1FFE744F20040C5F6020073
:10424000006800F004010020B0EB910F09D0FFE7F7
:104250000A98C06828B9FFE701208DF82F0000F008
:10426000A7BC44F20041C5F60201086820F019001D
:104270000A9AD26810430860FDF7B6FB0990FFE781
:1042800044F20040C5F60200006800F0040100207E
:10429000B0EB910F0DD1FFE7FDF7A6FB0999401A8E
:1042A000032805D3FFE703208DF82F0000F080BC22
:1042B000E6E7FFE7FDF790FB41F2030188421DD8D6
:1042C000FFE70A98006940280AD1FFE744F2044159
:1042D000C5F602010868202262F3113008600CE084
:1042E00044F20441C5F60201086820F47C300A9AC1
:1042F000126940EA02300860FFE70CE044F2044132
:10430000C5F60201086820F0FE400A9A126940EAE8
:1043100002600860FFE7FFE7FFE786E00A98C068F1
:1043200000285CD0FFE744F20041C5F602010868AE
:1043300020F019000A9AD26810430860FDF754FB78
:104340000990FFE744F20040C5F60200006800F063
:1043500004010020B0EB910F0DD1FFE7FDF744FB06
:104360000999401A032805D3FFE703208DF82F0091
:1043700000F01EBCE6E7FFE7FDF72EFB41F203016C
:1043800088421DD8FFE70A98006940280AD1FFE754
:1043900044F20441C5F602010868202262F311309C
:1043A00008600CE044F20441C5F60201086820F4FC
:1043B0007C300A9A126940EA02300860FFE70CE09C
:1043C00044F20441C5F60201086820F0FE400A9A52
:1043D000126940EA02600860FFE7FFE724E044F268
:1043E0000041C5F60201086820F001000860FDF7F1
:1043F000FBFA0990FFE744F20040C5F602000068AE
:1044000000F004010020B0EB910F0CD0FFE7FDF7A6
:10441000EBFA0999401A032804D3FFE703208DF82B
:104420002F00C5E3E7E7FFE7FFE7FFE70A9800781B
:10443000C006002840F1EB80FFE744F21040C5F6CB
:104440000200006800F03800029044F22840C5F6EF
:10445000020000680190029808280AD0FFE702983D
:10446000182850D1FFE7019800F0030001284AD135
:10447000FFE744F20040C5F60200006800F48071D6
:104480000020B0EB112F09D0FFE70A98C0698028FF
:1044900004D0FFE701208DF82F0089E3FFE7FDF747
:1044A0009BFA41F2030188421DD8FFE70A98006A8F
:1044B00020280AD1FFE744F20441C5F6020108684A
:1044C000102262F39E6008600CE044F20441C5F6DD
:1044D0000201086820F0F8400A9A126A40EA8260F5
:1044E0000860FFE70CE044F20C41C5F602010868E1
:1044F00020F07C500A9A126A40EA02600860FFE7E6
:10450000FFE7FFE782E00A98C069002858D0FFE77C
:1045100044F20041C5F60201086840F080000860DE
:10452000FDF762FA0990FFE744F20040C5F6020089
:10453000006800F480710020B0EB112F0CD1FFE770
:10454000FDF752FA0999401A032804D3FFE7032024
:104550008DF82F002CE3E7E7FFE7FDF73DFA41F286
:10456000030188421DD8FFE70A98006A20280AD173
:10457000FFE744F20441C5F602010868102262F325
:104580009E6008600CE044F20441C5F60201086830
:1045900020F0F8400A9A126A40EA82600860FFE759
:1045A0000CE044F20C41C5F60201086820F07C5092
:1045B0000A9A126A40EA02600860FFE7FFE724E017
:1045C00044F20041C5F60201086820F0800008604E
:1045D000FDF70AFA0990FFE744F20040C5F6020031
:1045E000006800F480710020B0EB112F0CD0FFE7C1
:1045F000FDF7FAF90999401A032804D3FFE70320CD
:104600008DF82F00D4E2E7E7FFE7FFE7FFE70A981E
:104610000078000700284FD5FFE70A98406928B3C3
:10462000FFE744F27441C5F60201086840F001005A
:104630000860FDF7D9F90990FFE744F27440C5F628
:104640000200006800F002010020B0EB510F0CD115
:10465000FFE7FDF7C9F90999401A032804D3FFE7DA
:1046600003208DF82F00A3E2E7E724E044F2744131
:10467000C5F60201086820F001000860FDF7B4F9F2
:104680000990FFE744F27440C5F60200006800F0AC
:1046900002010020B0EB510F0CD0FFE7FDF7A4F9A9
:1046A0000999401A032804D3FFE703208DF82F004F
:1046B0007EE2E7E7FFE7FFE70A9800788006002838
:1046C0004FD5FFE70A98806928B3FFE744F200411D
:1046D000C5F60201086840F480500860FDF784F9CF
:1046E0000990FFE744F20040C5F60200006800F4BC
:1046F00000510020B0EB513F0CD1FFE7FDF774F9FA
:104700000999401A032804D3FFE703208DF82F00EE
:104710004EE2E7E724E044F20041C5F602010868F2
:1047200020F480500860FDF75FF90990FFE744F23C
:104730000040C5F60200006800F400510020B0EB14
:10474000513F0CD0FFE7FDF74FF90999401A0328B4
:1047500004D3FFE703208DF82F0029E2E7E7FFE706
:10476000FFE70A9800784007002840F1A780FFE79C
:1047700044F60001C5F60201086840F48070086044
:10478000FDF732F90990FFE744F60000C5F6020094
:104790000068C00500280CD4FFE7FDF725F909994A
:1047A000401A652804D3FFE703208DF82F00FFE1AE
:1047B000EAE7FFE70A988068012809D1FFE744F299
:1047C0007041C5F60201086840F00100086031E060
:1047D0000A98806868B9FFE744F27041C5F60201A3
:1047E000086820F001000860086820F004000860F4
:1047F0001FE00A98806805280DD1FFE744F2704158
:10480000C5F60201086840F004000860086840F03E
:10481000010008600CE044F27041C5F6020108682E
:1048200020F001000860086820F004000860FFE73D
:10483000FFE7FFE7FFE70A988068F8B1FFE7FDF7B9
:10484000D3F80990FFE744F27040C5F60200006813
:1048500000F002010020B0EB510F0ED1FFE7FDF791
:10486000C3F80999401A41F28931884204D3FFE71D
:1048700003208DF82F009BE1E5E71EE0FDF7B4F87B
:104880000990FFE744F27040C5F60200006800F0AE
:1048900002010020B0EB510F0ED0FFE7FDF7A4F8A6
:1048A0000999401A41F28931884204D3FFE7032075
:1048B0008DF82F007CE1E5E7FFE7FFE70A98406A03
:1048C000002800F07181FFE744F21040C5F60200B5
:1048D000006800F03800182800F0E080FFE70A9830
:1048E000406A022840F0B480FFE744F20041C5F678
:1048F0000201086820F080700860FDF775F80990E3
:10490000FFE744F20040C5F60200006800F00071C5
:104910000020B0EB516F0CD0FFE7FDF765F8099967
:10492000401A032804D3FFE703208DF82F003FE14E
:10493000E7E7FFE744F22841C5F60201086840F2C4
:10494000F33290430A9B9A6ADB6A42EA03121043ED
:1049500008600A99086BD1F834C08B6BCA6B0138B8
:104960006FF35F204FF60061CFF6FF7101EB4C2132
:1049700089B208440021CFF6FF7101EB034101F435
:10498000FE0108444FF07F4101EB026101F0FE415E
:10499000084444F23041C5F602010860FFE744F2E2
:1049A0002C41C5F602010091086820F00100086062
:1049B00044F23442C5F6020210684FF6F873984389
:1049C0000A9B9B6C40EAC3001060086820F00C0052
:1049D0000A9A126C10430860086820F002000A9AD4
:1049E000526C10430860086840F480300860086822
:1049F00040F400300860086840F4802008600868CF
:104A000040F00100086044F20041C5F60201086868
:104A100040F080700860FCF7E7FF0990FFE744F280
:104A20000040C5F60200006800F000710020B0EB05
:104A3000516F0CD1FFE7FCF7D7FF0999401A032803
:104A400004D3FFE703208DF82F00B1E0E7E724E06F
:104A500044F20041C5F60201086820F08070086049
:104A6000FCF7C2FF0990FFE744F20040C5F60200E0
:104A7000006800F000710020B0EB516F0CD0FFE730
:104A8000FCF7B2FF0999401A032804D3FFE703207B
:104A90008DF82F008CE0E7E7FFE784E044F2284040
:104AA000C5F602000068089044F23040C5F60200E6
:104AB000006807900A98406A012837D0FFE70898F5
:104AC00000F003000A99896A88422FD1FFE708980D
:104AD00000F47C710A98C06AB0EB111F26D1FFE781
:104AE00007986FF35F200A99096B013988421DD13D
:104AF000FFE7BDF81C100A98406B0138B0EB512F4E
:104B000014D1FFE7079800F4FE010A98806B013882
:104B1000B0EB114F0AD1FFE7079800F0FE410A9869
:104B2000C06B0138B0EB116F04D0FFE701208DF8A6
:104B30002F003DE044F23440C5F60200006880B228
:104B4000C00808900A98806C0899884229D0FFE72D
:104B500044F22C41C5F60201086820F0010008600B
:104B6000FCF742FF0990FFE7FCF73EFF0999401A66
:104B700008B9FFE7F8E744F23441C5F602010868D6
:104B80004FF6F87290430A9A926C40EAC2000860AD
:104B900044F22C41C5F60201086840F001000860AB
:104BA000FFE7FFE7FFE7FFE700208DF82F00FFE7B3
:104BB0009DF82F000CB080BD80B582B001900198A7
:104BC00002F012FC02B080BD81B0009001B07047CD
:104BD00081B0009001B0704781B0009001B0704783
:104BE00085B003900291FFE7039890F83C000128FC
:104BF00004D1FFE702208DF8130099E0039901200A
:104C000081F83C00FFE7FFE70399022081F83D00AF
:104C100003980068406801900398006880680090DD
:104C2000039800680021C4F20101884209D0FFE71F
:104C30000398006840F20041C4F2010188420AD1A1
:104C4000FFE7019820F470000190029841680198F4
:104C500008430190FFE7019820F07000019002984E
:104C60000168019808430190019803990968486018
:104C7000039800680021C4F2010188423CD0FFE79C
:104C800003980068B0F1804F36D0FFE703980068C2
:104C900040F20041C4F2000188422DD0FFE70398A2
:104CA000006840F60001C4F20001884224D0FFE70A
:104CB0000398006840F60041C4F2000188421BD00E
:104CC000FFE70398006840F20041C4F20101884206
:104CD00012D0FFE70398006841F60001C4F200011A
:104CE000884209D0FFE70398006844F20001C4F24B
:104CF000010188420ED1FFE7009820F0800000906B
:104D00000298816800980843009000980399096808
:104D10008860FFE70399012081F83D00FFE70399D0
:104D2000002081F83C00FFE700208DF81300FFE72A
:104D30009DF8130005B0704780B582B000900098D0
:104D400020B9FFE701208DF8070045E0009890F8B2
:104D50003D0040B9FFE70099002081F83C00009831
:104D600000F03EF8FFE70099022081F83D0000992D
:104D700051F8040B02F0CCFC0099012081F84800A6
:104D8000FFE70099012081F83E00009981F83F007B
:104D9000009981F84000009981F84100009981F85C
:104DA0004200009981F84300FFE7FFE700990120E6
:104DB00081F84400009981F84500009981F8460087
:104DC000009981F84700FFE70099012081F83D0034
:104DD00000208DF80700FFE79DF8070002B080BDB6
:104DE00080B584B003900398006840F20041C4F29B
:104DF0000001884219D1FFE7FFE744F2E840C5F619
:104E00000200016841F002010160006800F0020048
:104E100002900298FFE71D20019000221146FDF745
:104E20006FF90198FDF760F9FFE704B080BD00005D
:104E300080B586B00490039100208DF80B00FFE749
:104E4000049890F83C00012804D1FFE702208DF877
:104E50001700D1E00499012081F83C00FFE7FFE74B
:104E60000499022081F83D00049800688068019050
:104E700001984FF68871CFF6CE71084001900198E5
:104E800020F47F4001900198049909688860039894
:104E900000680090002800F09580FFE70098102837
:104EA00000F09080FFE70098202800F08B80FFE75B
:104EB0000098302800F08680FFE70098402874D0E2
:104EC000FFE70098502856D0FFE7009860285FD091
:104ED000FFE7009870282AD0FFE70098B0F5805FC0
:104EE00024D0FFE70098B0F5005F35D0FFE70098C9
:104EF000B0F5801F66D0FFE70098B0F1101F61D0B9
:104F0000FFE700982021C0F2100188425AD0FFE745
:104F100000983021C0F21001884253D0FFE700987A
:104F20004021C0F2100188424CD052E055E0049874
:104F30000068039B5A689968DB6802F0B9FC049822
:104F4000006880680190019840F077000190019816
:104F500004990968886040E004980068039B5A68D7
:104F60009968DB6802F0A4FC04980168886840F442
:104F70008040886031E004980068039A5168D268E4
:104F800002F0CAFC04980068502102F0ADFC24E055
:104F900004980068039A5168D26802F0E5FC04980E
:104FA0000068602102F0A0FC17E004980068039AF2
:104FB0005168D26802F0B0FC04980068402102F009
:104FC00093FC0AE0049800680399096802F08CFCDD
:104FD00003E001208DF80B00FFE70499012081F820
:104FE0003D00FFE70499002081F83C00FFE79DF8B1
:104FF0000B008DF81700FFE79DF8170006B080BD85
:1050000081B0009001B0704780B582B001900198E6
:105010000068006900F002010020B0EB510F28D0B9
:10502000FFE701980068C06800F002010020B0EBC3
:10503000510F1DD0FFE7019801686FF00200086171
:10504000019901200877019800688069800720B1E4
:10505000FFE70198FFF7D4FF06E0019800F030F970
:10506000019800F031F9FFE7019900200877FFE788
:10507000FFE701980068006900F004010020B0EB30
:10508000910F29D0FFE701980068C06800F0040183
:105090000020B0EB910F1ED0FFE7019801686FF080
:1050A000040008610199022008770198006880696E
:1050B00010F4407F04D0FFE70198FFF7A1FF06E05E
:1050C000019800F0FDF8019800F0FEF8FFE7019963
:1050D00000200877FFE7FFE701980068006900F00B
:1050E00008010020B0EBD10F28D0FFE7019800683D
:1050F000C06800F008010020B0EBD10F1DD0FFE721
:10510000019801686FF00800086101990420087790
:1051100001980068C069800720B1FFE70198FFF798
:105120006FFF06E0019800F0CBF8019800F0CCF892
:10513000FFE7019900200877FFE7FFE70198006883
:10514000006900F010010020B0EB111F29D0FFE72B
:1051500001980068C06800F010010020B0EB111F3A
:105160001ED0FFE7019801686FF0100008610199F7
:105170000820087701980068C06910F4407F04D0C7
:10518000FFE70198FFF73CFF06E0019800F098F870
:10519000019800F099F8FFE7019900200877FFE7F0
:1051A000FFE7019800680069C00780B1FFE7019838
:1051B0000068C068C00748B1FFE7019801686FF058
:1051C00001000861019800F083F8FFE7FFE701980C
:1051D00000680069C1B20020B0EBD11F13D0FFE717
:1051E00001980068C068C1B20020B0EBD11F09D09F
:1051F000FFE7019801686FF0800008610198FFF7F0
:10520000E7FCFFE7FFE701980068006900F48071A0
:105210000020B0EB112F13D0FFE701980068C068A1
:10522000C1B20020B0EBD11F09D0FFE7019801689F
:105230006FF4807008610198FFF7C6FCFFE7FFE795
:1052400001980068006900F040010020B0EB911F58
:1052500014D0FFE701980068C06800F0400100200A
:10526000B0EB911F09D0FFE7019801686FF0400093
:105270000861019800F030F8FFE7FFE70198006847
:10528000006900F020010020B0EB511F14D0FFE7AF
:1052900001980068C06800F020010020B0EB511FA9
:1052A00009D0FFE7019801686FF0200008610198BC
:1052B000FFF792FCFFE7FFE702B080BD00000000AF
:1052C00081B0009001B0704781B0009001B070478C
:1052D00081B0009001B0704781B0009001B070477C
:1052E00083B00190FFE7019890F88400012804D171
:1052F000FFE702208DF80B002CE00199012081F8D6
:105300008400FFE7FFE701992420C1F88800019895
:1053100000680068009001980168086820F00100AA
:105320000860009820F00050009001990020486625
:10533000009801990968086001992020C1F8880047
:10534000FFE70199002081F88400FFE700208DF835
:105350000B00FFE79DF80B0003B070470000000052
:1053600082B00190ADF8021002B07047000000005A
:1053700081B0009001B0704780B584B00290019177
:10538000FFE7029890F88400012804D1FFE702208B
:105390008DF80F0032E00299012081F88400FFE7C8
:1053A000FFE702992420C1F888000298006800688D
:1053B000009002980168086820F0010008600298D7
:1053C0000068806820F060600199084302990968CC
:1053D0008860029802F0F4FA00980299096808605F
:1053E00002992020C1F88800FFE70299002081F887
:1053F0008400FFE700208DF80F00FFE79DF80F0005
:1054000004B080BD0000000080B584B0029001911E
:10541000FFE7029890F88400012804D1FFE70220FA
:105420008DF80F0032E00299012081F88400FFE737
:10543000FFE702992420C1F88800029800680068FC
:10544000009002980168086820F001000860029846
:105450000068806820F0604001990843029909685B
:105460008860029802F0ACFA009802990968086016
:1054700002992020C1F88800FFE70299002081F8F6
:105480008400FFE700208DF80F00FFE79DF80F0074
:1054900004B080BD0000000081B0009001B07047F2
:1054A00081B0009001B0704781B0009001B07047AA
:1054B00080B592B0119011980068C0691090119851
:1054C000006800680F901198006880680E9010982E
:1054D00040F60F0108400D900D98E0B9FFE79DF8E8
:1054E00040008006002815D5FFE79DF83C008006A7
:1054F000002806D4FFE79DF83B00C006002809D528
:10550000FFE71198406F20B1FFE71198416F88477E
:10551000FFE72FE3FFE70D98002800F00C81FFE77D
:105520000E980121C1F20001084209D1FFE70F984E
:1055300040F22011C0F20041084200F0FC80FFE779
:105540009DF84000C00788B1FFE79DF83D00C00707
:1055500060B1FFE711980168012008621199D1F844
:10556000900040F00100C1F89000FFE79DF8400076
:105570008007002811D5FFE79DF83800C00760B10B
:10558000FFE711980168022008621199D1F8900094
:1055900040F00400C1F89000FFE79DF8400040078C
:1055A000002811D5FFE79DF83800C00760B1FFE77C
:1055B00011980168042008621199D1F8900040F018
:1055C0000200C1F89000FFE79DF8400000070028A6
:1055D00019D5FFE79DF83C008006002807D4FFE7B7
:1055E0000E980121C1F2000108420CD0FFE711988A
:1055F0000168082008621199D1F8900040F0080075
:10560000C1F89000FFE79DF841000007002813D57E
:10561000FFE79DF83F00400700280DD5FFE71198F0
:1056200001684FF4006008621199D1F8900040F0D1
:105630002000C1F89000FFE71198D0F890000028F2
:1056400078D0FFE79DF840008006002815D5FFE7D9
:105650009DF83C008006002806D4FFE79DF83B003B
:10566000C006002809D5FFE71198406F20B1FFE779
:105670001198416F8847FFE7FFE71198D0F8900035
:105680000C9011980068806800F04000402806D017
:10569000FFE79DF8300010F0280F42D0FFE7119887
:1056A00002F02EFB1198006880684006002833D570
:1056B000FFE7FFE7FFE71198006850E8020F20F0CE
:1056C00040000B90FFE70B991198026842E8021026
:1056D0000028F0D1FFE7FFE71198D0F88000B0B1C3
:1056E000FFE71198D0F8801047F6D940C0F60000C7
:1056F00008651198D0F88000FBF7EEFB30B1FFE7AA
:105700001198D0F88000016D8847FFE703E01198F9
:10571000FFF7CAFEFFE703E01198FFF7C5FEFFE7BA
:1057200007E01198FFF7C0FE11990020C1F8900022
:10573000FFE7FFE71EE21198C06E012840F0BB8131
:10574000FFE79DF84000C006002840F1B481FFE764
:105750009DF83C00C006002840F1AD81FFE711989C
:1057600001681020086211980068806840060028CF
:1057700040F13F81FFE71198D0F8800000681021C8
:10578000C4F20201884200F0A280FFE71198D0F82D
:10579000800000682821C4F20201884200F097804E
:1057A000FFE71198D0F8800000684021C4F20201A0
:1057B000884200F08C80FFE71198D0F880000068E4
:1057C0005821C4F20201884200F08180FFE711985D
:1057D000D0F8800000687021C4F20201884276D0BF
:1057E000FFE71198D0F8800000688821C4F2020118
:1057F00088426CD0FFE71198D0F880000068A021A3
:10580000C4F20201884262D0FFE71198D0F880000C
:105810000068B821C4F20201884258D0FFE711980D
:10582000D0F88000006840F21041C4F202018842C2
:105830004DD0FFE71198D0F88000006840F2284171
:10584000C4F20201884242D0FFE71198D0F88000EC
:10585000006840F24041C4F20201884237D0FFE7BD
:105860001198D0F88000006840F25841C4F202015B
:1058700088422CD0FFE71198D0F88000006840F2F1
:105880007041C4F20201884221D0FFE71198D0F89C
:105890008000006840F28841C4F20201884216D0BC
:1058A000FFE71198D0F88000006840F2A041C4F2F0
:1058B000020188420BD0FFE71198D0F88000006801
:1058C00040F2B841C4F20201884207D1FFE71198C3
:1058D000D0F8800000684068019006E01198D0F888
:1058E0008000006840680190FFE70198ADF82A0049
:1058F000BDF82A0000287BD0FFE7BDF82A001199E7
:10590000B1F85C10884273DAFFE7BDF82A001199FC
:10591000A1F85E001198D0F88000C069B0F5807FD2
:1059200059D0FFE7FFE7FFE71198006850E8000F44
:1059300020F480700990FFE709991198026842E805
:1059400000100028F0D1FFE7FFE7FFE7FFE711981D
:10595000006850E8020F20F001000890FFE7089966
:105960001198026842E802100028F0D1FFE7FFE733
:10597000FFE7FFE71198006850E8020F20F04000B1
:105980000790FFE707991198026842E80210002883
:10599000F0D1FFE7FFE711992020C1F88C001199A1
:1059A0000020C866FFE7FFE71198006850E8000F85
:1059B00020F010000690FFE706991198026842E86F
:1059C00000100028F0D1FFE7FFE71198D0F8800021
:1059D000FAF7C6FDFFE71199022008671198B0F8A1
:1059E0005C10B0F85E20891A89B2FFF7B9FCFFE7B6
:1059F000C0E01199B1F85C00B1F85E10401AADF842
:105A000016001198B0F85E00002853D0FFE7BDF8EB
:105A1000160000284ED0FFE7FFE7FFE71198006867
:105A200050E8000F20F490700490FFE7049911985B
:105A3000026842E800100028F0D1FFE7FFE7FFE727
:105A4000FFE71198006850E8020F4FF6FE71CEF69E
:105A5000FF7108400390FFE703991198026842E83C
:105A600002100028EDD1FFE7FFE711992020C1F8CF
:105A70008C0011990020C86611994867FFE7FFE77D
:105A80001198006850E8000F20F010000290FFE726
:105A900002991198026842E800100028F0D1FFE74F
:105AA000FFE71199022008671198BDF81610FFF75B
:105AB00057FCFFE75EE09DF84200C00600280FD5C6
:105AC000FFE79DF83A004006002809D5FFE7119846
:105AD00001684FF4801008621198FFF7E1FC49E07B
